{
  "contracts/SwapTokenV2.sol": {
    "SwapTokenV2": {
      "abi": [
        {
          "anonymous": false,
          "inputs": [
            {
              "indexed": true,
              "internalType": "address",
              "name": "previousOwner",
              "type": "address"
            },
            {
              "indexed": true,
              "internalType": "address",
              "name": "newOwner",
              "type": "address"
            }
          ],
          "name": "OwnershipTransferred",
          "type": "event"
        },
        {
          "anonymous": false,
          "inputs": [
            {
              "indexed": false,
              "internalType": "address",
              "name": "tokenIn",
              "type": "address"
            },
            {
              "indexed": false,
              "internalType": "address",
              "name": "tokenOut",
              "type": "address"
            },
            {
              "indexed": false,
              "internalType": "uint256",
              "name": "_newRate",
              "type": "uint256"
            },
            {
              "indexed": false,
              "internalType": "uint32",
              "name": "newRateDecimals",
              "type": "uint32"
            }
          ],
          "name": "RateChange",
          "type": "event"
        },
        {
          "anonymous": false,
          "inputs": [
            {
              "indexed": false,
              "internalType": "address",
              "name": "_tokenIn",
              "type": "address"
            },
            {
              "indexed": false,
              "internalType": "address",
              "name": "_tokenOut",
              "type": "address"
            },
            {
              "indexed": false,
              "internalType": "uint256",
              "name": "_amountIn",
              "type": "uint256"
            },
            {
              "indexed": false,
              "internalType": "uint256",
              "name": "_amountOut",
              "type": "uint256"
            }
          ],
          "name": "Swap",
          "type": "event"
        },
        {
          "inputs": [],
          "name": "initialize",
          "outputs": [],
          "stateMutability": "nonpayable",
          "type": "function"
        },
        {
          "inputs": [],
          "name": "owner",
          "outputs": [
            {
              "internalType": "address",
              "name": "",
              "type": "address"
            }
          ],
          "stateMutability": "view",
          "type": "function"
        },
        {
          "inputs": [],
          "name": "renounceOwnership",
          "outputs": [],
          "stateMutability": "nonpayable",
          "type": "function"
        },
        {
          "inputs": [
            {
              "internalType": "address",
              "name": "_tokenIn",
              "type": "address"
            },
            {
              "internalType": "address",
              "name": "_tokenOut",
              "type": "address"
            },
            {
              "internalType": "uint256",
              "name": "_amountIn",
              "type": "uint256"
            }
          ],
          "name": "swap",
          "outputs": [],
          "stateMutability": "payable",
          "type": "function"
        },
        {
          "inputs": [
            {
              "internalType": "address",
              "name": "",
              "type": "address"
            },
            {
              "internalType": "address",
              "name": "",
              "type": "address"
            }
          ],
          "name": "tokenRate",
          "outputs": [
            {
              "internalType": "uint256",
              "name": "rate",
              "type": "uint256"
            },
            {
              "internalType": "uint32",
              "name": "decimals",
              "type": "uint32"
            }
          ],
          "stateMutability": "view",
          "type": "function"
        },
        {
          "inputs": [
            {
              "internalType": "address",
              "name": "newOwner",
              "type": "address"
            }
          ],
          "name": "transferOwnership",
          "outputs": [],
          "stateMutability": "nonpayable",
          "type": "function"
        },
        {
          "stateMutability": "payable",
          "type": "receive"
        }
      ],
      "evm": {
        "bytecode": {
          "linkReferences": {},
          "object": "608060405234801561001057600080fd5b50611ac3806100206000396000f3fe6080604052600436106100595760003560e01c80632c798a6c14610065578063715018a6146100a35780638129fc1c146100ba5780638da5cb5b146100d1578063df791e50146100fc578063f2fde38b1461011857610060565b3661006057005b600080fd5b34801561007157600080fd5b5061008c60048036038101906100879190610e7d565b610141565b60405161009a929190610ef5565b60405180910390f35b3480156100af57600080fd5b506100b8610182565b005b3480156100c657600080fd5b506100cf61020a565b005b3480156100dd57600080fd5b506100e66102f6565b6040516100f39190610f2d565b60405180910390f35b61011660048036038101906101119190610f74565b610320565b005b34801561012457600080fd5b5061013f600480360381019061013a9190610fc7565b6105d5565b005b6065602052816000526040600020602052806000526040600020600091509150508060000154908060010160009054906101000a900463ffffffff16905082565b61018a6106cd565b73ffffffffffffffffffffffffffffffffffffffff166101a86102f6565b73ffffffffffffffffffffffffffffffffffffffff16146101fe576040517f08c379a00000000000000000000000000000000000000000000000000000000081526004016101f590611051565b60405180910390fd5b61020860006106d5565b565b600060019054906101000a900460ff166102325760008054906101000a900460ff161561023b565b61023a61079b565b5b61027a576040517f08c379a0000000000000000000000000000000000000000000000000000000008152600401610271906110e3565b60405180910390fd5b60008060019054906101000a900460ff1615905080156102ca576001600060016101000a81548160ff02191690831515021790555060016000806101000a81548160ff0219169083151502179055505b6102d26107ac565b80156102f35760008060016101000a81548160ff0219169083151502179055505b50565b6000603360009054906101000a900473ffffffffffffffffffffffffffffffffffffffff16905090565b8173ffffffffffffffffffffffffffffffffffffffff168373ffffffffffffffffffffffffffffffffffffffff16141561038f576040517f08c379a000000000000000000000000000000000000000000000000000000000815260040161038690611175565b60405180910390fd5b6000606560008573ffffffffffffffffffffffffffffffffffffffff1673ffffffffffffffffffffffffffffffffffffffff16815260200190815260200160002060008473ffffffffffffffffffffffffffffffffffffffff1673ffffffffffffffffffffffffffffffffffffffff1681526020019081526020016000206000015411610451576040517f08c379a000000000000000000000000000000000000000000000000000000000815260040161044890611207565b60405180910390fd5b600034905060008073ffffffffffffffffffffffffffffffffffffffff168573ffffffffffffffffffffffffffffffffffffffff161461048f578291505b606560008673ffffffffffffffffffffffffffffffffffffffff1673ffffffffffffffffffffffffffffffffffffffff16815260200190815260200160002060008573ffffffffffffffffffffffffffffffffffffffff1673ffffffffffffffffffffffffffffffffffffffff16815260200190815260200160002060010160009054906101000a900463ffffffff16600a61052b9190611389565b606560008773ffffffffffffffffffffffffffffffffffffffff1673ffffffffffffffffffffffffffffffffffffffff16815260200190815260200160002060008673ffffffffffffffffffffffffffffffffffffffff1673ffffffffffffffffffffffffffffffffffffffff16815260200190815260200160002060000154836105b691906113d4565b6105c0919061145d565b90506105ce85858484610805565b5050505050565b6105dd6106cd565b73ffffffffffffffffffffffffffffffffffffffff166105fb6102f6565b73ffffffffffffffffffffffffffffffffffffffff1614610651576040517f08c379a000000000000000000000000000000000000000000000000000000000815260040161064890611051565b60405180910390fd5b600073ffffffffffffffffffffffffffffffffffffffff168173ffffffffffffffffffffffffffffffffffffffff1614156106c1576040517f08c379a00000000000000000000000000000000000000000000000000000000081526004016106b890611500565b60405180910390fd5b6106ca816106d5565b50565b600033905090565b6000603360009054906101000a900473ffffffffffffffffffffffffffffffffffffffff16905081603360006101000a81548173ffffffffffffffffffffffffffffffffffffffff021916908373ffffffffffffffffffffffffffffffffffffffff1602179055508173ffffffffffffffffffffffffffffffffffffffff168173ffffffffffffffffffffffffffffffffffffffff167f8be0079c531659141344cd1fd0a4f28419497f9722a3daafe3b4186f6b6457e060405160405180910390a35050565b60006107a6306108a1565b15905090565b600060019054906101000a900460ff166107fb576040517f08c379a00000000000000000000000000000000000000000000000000000000081526004016107f290611592565b60405180910390fd5b6108036108c4565b565b60008211610848576040517f08c379a000000000000000000000000000000000000000000000000000000000815260040161083f90611624565b60405180910390fd5b610853843384610925565b61085e833383610992565b7ffa2dda1cc1b86e41239702756b13effbc1a092b5c57e3ad320fbe4f3b13fe235848484846040516108939493929190611644565b60405180910390a150505050565b6000808273ffffffffffffffffffffffffffffffffffffffff163b119050919050565b600060019054906101000a900460ff16610913576040517f08c379a000000000000000000000000000000000000000000000000000000000815260040161090a90611592565b60405180910390fd5b61092361091e6106cd565b6106d5565b565b6000839050600073ffffffffffffffffffffffffffffffffffffffff168473ffffffffffffffffffffffffffffffffffffffff161461098c5761098b8330848473ffffffffffffffffffffffffffffffffffffffff16610ab1909392919063ffffffff16565b5b50505050565b6000839050600073ffffffffffffffffffffffffffffffffffffffff168473ffffffffffffffffffffffffffffffffffffffff161415610a7f5760008373ffffffffffffffffffffffffffffffffffffffff16836040516109f2906116ba565b60006040518083038185875af1925050503d8060008114610a2f576040519150601f19603f3d011682016040523d82523d6000602084013e610a34565b606091505b5050905080610a78576040517f08c379a0000000000000000000000000000000000000000000000000000000008152600401610a6f9061171b565b60405180910390fd5b5050610aac565b610aaa83838373ffffffffffffffffffffffffffffffffffffffff16610b3a9092919063ffffffff16565b505b505050565b610b34846323b872dd60e01b858585604051602401610ad29392919061173b565b604051602081830303815290604052907bffffffffffffffffffffffffffffffffffffffffffffffffffffffff19166020820180517bffffffffffffffffffffffffffffffffffffffffffffffffffffffff8381831617835250505050610bc0565b50505050565b610bbb8363a9059cbb60e01b8484604051602401610b59929190611772565b604051602081830303815290604052907bffffffffffffffffffffffffffffffffffffffffffffffffffffffff19166020820180517bffffffffffffffffffffffffffffffffffffffffffffffffffffffff8381831617835250505050610bc0565b505050565b6000610c22826040518060400160405280602081526020017f5361666545524332303a206c6f772d6c6576656c2063616c6c206661696c65648152508573ffffffffffffffffffffffffffffffffffffffff16610c879092919063ffffffff16565b9050600081511115610c825780806020019051810190610c4291906117d3565b610c81576040517f08c379a0000000000000000000000000000000000000000000000000000000008152600401610c7890611872565b60405180910390fd5b5b505050565b6060610c968484600085610c9f565b90509392505050565b606082471015610ce4576040517f08c379a0000000000000000000000000000000000000000000000000000000008152600401610cdb90611904565b60405180910390fd5b610ced856108a1565b610d2c576040517f08c379a0000000000000000000000000000000000000000000000000000000008152600401610d2390611970565b60405180910390fd5b6000808673ffffffffffffffffffffffffffffffffffffffff168587604051610d5591906119ff565b60006040518083038185875af1925050503d8060008114610d92576040519150601f19603f3d011682016040523d82523d6000602084013e610d97565b606091505b5091509150610da7828286610db3565b92505050949350505050565b60608315610dc357829050610e13565b600083511115610dd65782518084602001fd5b816040517f08c379a0000000000000000000000000000000000000000000000000000000008152600401610e0a9190611a6b565b60405180910390fd5b9392505050565b600080fd5b600073ffffffffffffffffffffffffffffffffffffffff82169050919050565b6000610e4a82610e1f565b9050919050565b610e5a81610e3f565b8114610e6557600080fd5b50565b600081359050610e7781610e51565b92915050565b60008060408385031215610e9457610e93610e1a565b5b6000610ea285828601610e68565b9250506020610eb385828601610e68565b9150509250929050565b6000819050919050565b610ed081610ebd565b82525050565b600063ffffffff82169050919050565b610eef81610ed6565b82525050565b6000604082019050610f0a6000830185610ec7565b610f176020830184610ee6565b9392505050565b610f2781610e3f565b82525050565b6000602082019050610f426000830184610f1e565b92915050565b610f5181610ebd565b8114610f5c57600080fd5b50565b600081359050610f6e81610f48565b92915050565b600080600060608486031215610f8d57610f8c610e1a565b5b6000610f9b86828701610e68565b9350506020610fac86828701610e68565b9250506040610fbd86828701610f5f565b9150509250925092565b600060208284031215610fdd57610fdc610e1a565b5b6000610feb84828501610e68565b91505092915050565b600082825260208201905092915050565b7f4f776e61626c653a2063616c6c6572206973206e6f7420746865206f776e6572600082015250565b600061103b602083610ff4565b915061104682611005565b602082019050919050565b6000602082019050818103600083015261106a8161102e565b9050919050565b7f496e697469616c697a61626c653a20636f6e747261637420697320616c72656160008201527f647920696e697469616c697a6564000000000000000000000000000000000000602082015250565b60006110cd602e83610ff4565b91506110d882611071565b604082019050919050565b600060208201905081810360008301526110fc816110c0565b9050919050565b7f43616e6e6f74207472616e73666572203220746f6b656e20776974682073616d60008201527f6520616464726573730000000000000000000000000000000000000000000000602082015250565b600061115f602983610ff4565b915061116a82611103565b604082019050919050565b6000602082019050818103600083015261118e81611152565b9050919050565b7f5468652072617465206265747765656e2074686973203220746f6b656e73206960008201527f7320756e617661696c61626c6500000000000000000000000000000000000000602082015250565b60006111f1602d83610ff4565b91506111fc82611195565b604082019050919050565b60006020820190508181036000830152611220816111e4565b9050919050565b7f4e487b7100000000000000000000000000000000000000000000000000000000600052601160045260246000fd5b60008160011c9050919050565b6000808291508390505b60018511156112ad5780860481111561128957611288611227565b5b60018516156112985780820291505b80810290506112a685611256565b945061126d565b94509492505050565b6000826112c65760019050611382565b816112d45760009050611382565b81600181146112ea57600281146112f457611323565b6001915050611382565b60ff84111561130657611305611227565b5b8360020a91508482111561131d5761131c611227565b5b50611382565b5060208310610133831016604e8410600b84101617156113585782820a90508381111561135357611352611227565b5b611382565b6113658484846001611263565b9250905081840481111561137c5761137b611227565b5b81810290505b9392505050565b600061139482610ebd565b915061139f83610ed6565b92506113cc7fffffffffffffffffffffffffffffffffffffffffffffffffffffffffffffffff84846112b6565b905092915050565b60006113df82610ebd565b91506113ea83610ebd565b9250817fffffffffffffffffffffffffffffffffffffffffffffffffffffffffffffffff048311821515161561142357611422611227565b5b828202905092915050565b7f4e487b7100000000000000000000000000000000000000000000000000000000600052601260045260246000fd5b600061146882610ebd565b915061147383610ebd565b9250826114835761148261142e565b5b828204905092915050565b7f4f776e61626c653a206e6577206f776e657220697320746865207a65726f206160008201527f6464726573730000000000000000000000000000000000000000000000000000602082015250565b60006114ea602683610ff4565b91506114f58261148e565b604082019050919050565b60006020820190508181036000830152611519816114dd565b9050919050565b7f496e697469616c697a61626c653a20636f6e7472616374206973206e6f74206960008201527f6e697469616c697a696e67000000000000000000000000000000000000000000602082015250565b600061157c602b83610ff4565b915061158782611520565b604082019050919050565b600060208201905081810360008301526115ab8161156f565b9050919050565b7f43616e6e6f74207377617020746f6b656e20696620746f6b656e20616d6f756e60008201527f7420697320657175616c20746f20300000000000000000000000000000000000602082015250565b600061160e602f83610ff4565b9150611619826115b2565b604082019050919050565b6000602082019050818103600083015261163d81611601565b9050919050565b60006080820190506116596000830187610f1e565b6116666020830186610f1e565b6116736040830185610ec7565b6116806060830184610ec7565b95945050505050565b600081905092915050565b50565b60006116a4600083611689565b91506116af82611694565b600082019050919050565b60006116c582611697565b9150819050919050565b7f5472616e7366657220746f6b656e206661696c65640000000000000000000000600082015250565b6000611705601583610ff4565b9150611710826116cf565b602082019050919050565b60006020820190508181036000830152611734816116f8565b9050919050565b60006060820190506117506000830186610f1e565b61175d6020830185610f1e565b61176a6040830184610ec7565b949350505050565b60006040820190506117876000830185610f1e565b6117946020830184610ec7565b9392505050565b60008115159050919050565b6117b08161179b565b81146117bb57600080fd5b50565b6000815190506117cd816117a7565b92915050565b6000602082840312156117e9576117e8610e1a565b5b60006117f7848285016117be565b91505092915050565b7f5361666545524332303a204552433230206f7065726174696f6e20646964206e60008201527f6f74207375636365656400000000000000000000000000000000000000000000602082015250565b600061185c602a83610ff4565b915061186782611800565b604082019050919050565b6000602082019050818103600083015261188b8161184f565b9050919050565b7f416464726573733a20696e73756666696369656e742062616c616e636520666f60008201527f722063616c6c0000000000000000000000000000000000000000000000000000602082015250565b60006118ee602683610ff4565b91506118f982611892565b604082019050919050565b6000602082019050818103600083015261191d816118e1565b9050919050565b7f416464726573733a2063616c6c20746f206e6f6e2d636f6e7472616374000000600082015250565b600061195a601d83610ff4565b915061196582611924565b602082019050919050565b600060208201905081810360008301526119898161194d565b9050919050565b600081519050919050565b60005b838110156119b957808201518184015260208101905061199e565b838111156119c8576000848401525b50505050565b60006119d982611990565b6119e38185611689565b93506119f381856020860161199b565b80840191505092915050565b6000611a0b82846119ce565b915081905092915050565b600081519050919050565b6000601f19601f8301169050919050565b6000611a3d82611a16565b611a478185610ff4565b9350611a5781856020860161199b565b611a6081611a21565b840191505092915050565b60006020820190508181036000830152611a858184611a32565b90509291505056fea26469706673582212208ebf0be566f0f07d758356725b7b8e6963ecb2058786fcc6923f9894d85bf10564736f6c63430008090033",
          "opcodes": "PUSH1 0x80 PUSH1 0x40 MSTORE CALLVALUE DUP1 ISZERO PUSH2 0x10 JUMPI PUSH1 0x0 DUP1 REVERT JUMPDEST POP PUSH2 0x1AC3 DUP1 PUSH2 0x20 PUSH1 0x0 CODECOPY PUSH1 0x0 RETURN INVALID PUSH1 0x80 PUSH1 0x40 MSTORE PUSH1 0x4 CALLDATASIZE LT PUSH2 0x59 JUMPI PUSH1 0x0 CALLDATALOAD PUSH1 0xE0 SHR DUP1 PUSH4 0x2C798A6C EQ PUSH2 0x65 JUMPI DUP1 PUSH4 0x715018A6 EQ PUSH2 0xA3 JUMPI DUP1 PUSH4 0x8129FC1C EQ PUSH2 0xBA JUMPI DUP1 PUSH4 0x8DA5CB5B EQ PUSH2 0xD1 JUMPI DUP1 PUSH4 0xDF791E50 EQ PUSH2 0xFC JUMPI DUP1 PUSH4 0xF2FDE38B EQ PUSH2 0x118 JUMPI PUSH2 0x60 JUMP JUMPDEST CALLDATASIZE PUSH2 0x60 JUMPI STOP JUMPDEST PUSH1 0x0 DUP1 REVERT JUMPDEST CALLVALUE DUP1 ISZERO PUSH2 0x71 JUMPI PUSH1 0x0 DUP1 REVERT JUMPDEST POP PUSH2 0x8C PUSH1 0x4 DUP1 CALLDATASIZE SUB DUP2 ADD SWAP1 PUSH2 0x87 SWAP2 SWAP1 PUSH2 0xE7D JUMP JUMPDEST PUSH2 0x141 JUMP JUMPDEST PUSH1 0x40 MLOAD PUSH2 0x9A SWAP3 SWAP2 SWAP1 PUSH2 0xEF5 JUMP JUMPDEST PUSH1 0x40 MLOAD DUP1 SWAP2 SUB SWAP1 RETURN JUMPDEST CALLVALUE DUP1 ISZERO PUSH2 0xAF JUMPI PUSH1 0x0 DUP1 REVERT JUMPDEST POP PUSH2 0xB8 PUSH2 0x182 JUMP JUMPDEST STOP JUMPDEST CALLVALUE DUP1 ISZERO PUSH2 0xC6 JUMPI PUSH1 0x0 DUP1 REVERT JUMPDEST POP PUSH2 0xCF PUSH2 0x20A JUMP JUMPDEST STOP JUMPDEST CALLVALUE DUP1 ISZERO PUSH2 0xDD JUMPI PUSH1 0x0 DUP1 REVERT JUMPDEST POP PUSH2 0xE6 PUSH2 0x2F6 JUMP JUMPDEST PUSH1 0x40 MLOAD PUSH2 0xF3 SWAP2 SWAP1 PUSH2 0xF2D JUMP JUMPDEST PUSH1 0x40 MLOAD DUP1 SWAP2 SUB SWAP1 RETURN JUMPDEST PUSH2 0x116 PUSH1 0x4 DUP1 CALLDATASIZE SUB DUP2 ADD SWAP1 PUSH2 0x111 SWAP2 SWAP1 PUSH2 0xF74 JUMP JUMPDEST PUSH2 0x320 JUMP JUMPDEST STOP JUMPDEST CALLVALUE DUP1 ISZERO PUSH2 0x124 JUMPI PUSH1 0x0 DUP1 REVERT JUMPDEST POP PUSH2 0x13F PUSH1 0x4 DUP1 CALLDATASIZE SUB DUP2 ADD SWAP1 PUSH2 0x13A SWAP2 SWAP1 PUSH2 0xFC7 JUMP JUMPDEST PUSH2 0x5D5 JUMP JUMPDEST STOP JUMPDEST PUSH1 0x65 PUSH1 0x20 MSTORE DUP2 PUSH1 0x0 MSTORE PUSH1 0x40 PUSH1 0x0 KECCAK256 PUSH1 0x20 MSTORE DUP1 PUSH1 0x0 MSTORE PUSH1 0x40 PUSH1 0x0 KECCAK256 PUSH1 0x0 SWAP2 POP SWAP2 POP POP DUP1 PUSH1 0x0 ADD SLOAD SWAP1 DUP1 PUSH1 0x1 ADD PUSH1 0x0 SWAP1 SLOAD SWAP1 PUSH2 0x100 EXP SWAP1 DIV PUSH4 0xFFFFFFFF AND SWAP1 POP DUP3 JUMP JUMPDEST PUSH2 0x18A PUSH2 0x6CD JUMP JUMPDEST PUSH20 0xFFFFFFFFFFFFFFFFFFFFFFFFFFFFFFFFFFFFFFFF AND PUSH2 0x1A8 PUSH2 0x2F6 JUMP JUMPDEST PUSH20 0xFFFFFFFFFFFFFFFFFFFFFFFFFFFFFFFFFFFFFFFF AND EQ PUSH2 0x1FE JUMPI PUSH1 0x40 MLOAD PUSH32 0x8C379A000000000000000000000000000000000000000000000000000000000 DUP2 MSTORE PUSH1 0x4 ADD PUSH2 0x1F5 SWAP1 PUSH2 0x1051 JUMP JUMPDEST PUSH1 0x40 MLOAD DUP1 SWAP2 SUB SWAP1 REVERT JUMPDEST PUSH2 0x208 PUSH1 0x0 PUSH2 0x6D5 JUMP JUMPDEST JUMP JUMPDEST PUSH1 0x0 PUSH1 0x1 SWAP1 SLOAD SWAP1 PUSH2 0x100 EXP SWAP1 DIV PUSH1 0xFF AND PUSH2 0x232 JUMPI PUSH1 0x0 DUP1 SLOAD SWAP1 PUSH2 0x100 EXP SWAP1 DIV PUSH1 0xFF AND ISZERO PUSH2 0x23B JUMP JUMPDEST PUSH2 0x23A PUSH2 0x79B JUMP JUMPDEST JUMPDEST PUSH2 0x27A JUMPI PUSH1 0x40 MLOAD PUSH32 0x8C379A000000000000000000000000000000000000000000000000000000000 DUP2 MSTORE PUSH1 0x4 ADD PUSH2 0x271 SWAP1 PUSH2 0x10E3 JUMP JUMPDEST PUSH1 0x40 MLOAD DUP1 SWAP2 SUB SWAP1 REVERT JUMPDEST PUSH1 0x0 DUP1 PUSH1 0x1 SWAP1 SLOAD SWAP1 PUSH2 0x100 EXP SWAP1 DIV PUSH1 0xFF AND ISZERO SWAP1 POP DUP1 ISZERO PUSH2 0x2CA JUMPI PUSH1 0x1 PUSH1 0x0 PUSH1 0x1 PUSH2 0x100 EXP DUP2 SLOAD DUP2 PUSH1 0xFF MUL NOT AND SWAP1 DUP4 ISZERO ISZERO MUL OR SWAP1 SSTORE POP PUSH1 0x1 PUSH1 0x0 DUP1 PUSH2 0x100 EXP DUP2 SLOAD DUP2 PUSH1 0xFF MUL NOT AND SWAP1 DUP4 ISZERO ISZERO MUL OR SWAP1 SSTORE POP JUMPDEST PUSH2 0x2D2 PUSH2 0x7AC JUMP JUMPDEST DUP1 ISZERO PUSH2 0x2F3 JUMPI PUSH1 0x0 DUP1 PUSH1 0x1 PUSH2 0x100 EXP DUP2 SLOAD DUP2 PUSH1 0xFF MUL NOT AND SWAP1 DUP4 ISZERO ISZERO MUL OR SWAP1 SSTORE POP JUMPDEST POP JUMP JUMPDEST PUSH1 0x0 PUSH1 0x33 PUSH1 0x0 SWAP1 SLOAD SWAP1 PUSH2 0x100 EXP SWAP1 DIV PUSH20 0xFFFFFFFFFFFFFFFFFFFFFFFFFFFFFFFFFFFFFFFF AND SWAP1 POP SWAP1 JUMP JUMPDEST DUP2 PUSH20 0xFFFFFFFFFFFFFFFFFFFFFFFFFFFFFFFFFFFFFFFF AND DUP4 PUSH20 0xFFFFFFFFFFFFFFFFFFFFFFFFFFFFFFFFFFFFFFFF AND EQ ISZERO PUSH2 0x38F JUMPI PUSH1 0x40 MLOAD PUSH32 0x8C379A000000000000000000000000000000000000000000000000000000000 DUP2 MSTORE PUSH1 0x4 ADD PUSH2 0x386 SWAP1 PUSH2 0x1175 JUMP JUMPDEST PUSH1 0x40 MLOAD DUP1 SWAP2 SUB SWAP1 REVERT JUMPDEST PUSH1 0x0 PUSH1 0x65 PUSH1 0x0 DUP6 PUSH20 0xFFFFFFFFFFFFFFFFFFFFFFFFFFFFFFFFFFFFFFFF AND PUSH20 0xFFFFFFFFFFFFFFFFFFFFFFFFFFFFFFFFFFFFFFFF AND DUP2 MSTORE PUSH1 0x20 ADD SWAP1 DUP2 MSTORE PUSH1 0x20 ADD PUSH1 0x0 KECCAK256 PUSH1 0x0 DUP5 PUSH20 0xFFFFFFFFFFFFFFFFFFFFFFFFFFFFFFFFFFFFFFFF AND PUSH20 0xFFFFFFFFFFFFFFFFFFFFFFFFFFFFFFFFFFFFFFFF AND DUP2 MSTORE PUSH1 0x20 ADD SWAP1 DUP2 MSTORE PUSH1 0x20 ADD PUSH1 0x0 KECCAK256 PUSH1 0x0 ADD SLOAD GT PUSH2 0x451 JUMPI PUSH1 0x40 MLOAD PUSH32 0x8C379A000000000000000000000000000000000000000000000000000000000 DUP2 MSTORE PUSH1 0x4 ADD PUSH2 0x448 SWAP1 PUSH2 0x1207 JUMP JUMPDEST PUSH1 0x40 MLOAD DUP1 SWAP2 SUB SWAP1 REVERT JUMPDEST PUSH1 0x0 CALLVALUE SWAP1 POP PUSH1 0x0 DUP1 PUSH20 0xFFFFFFFFFFFFFFFFFFFFFFFFFFFFFFFFFFFFFFFF AND DUP6 PUSH20 0xFFFFFFFFFFFFFFFFFFFFFFFFFFFFFFFFFFFFFFFF AND EQ PUSH2 0x48F JUMPI DUP3 SWAP2 POP JUMPDEST PUSH1 0x65 PUSH1 0x0 DUP7 PUSH20 0xFFFFFFFFFFFFFFFFFFFFFFFFFFFFFFFFFFFFFFFF AND PUSH20 0xFFFFFFFFFFFFFFFFFFFFFFFFFFFFFFFFFFFFFFFF AND DUP2 MSTORE PUSH1 0x20 ADD SWAP1 DUP2 MSTORE PUSH1 0x20 ADD PUSH1 0x0 KECCAK256 PUSH1 0x0 DUP6 PUSH20 0xFFFFFFFFFFFFFFFFFFFFFFFFFFFFFFFFFFFFFFFF AND PUSH20 0xFFFFFFFFFFFFFFFFFFFFFFFFFFFFFFFFFFFFFFFF AND DUP2 MSTORE PUSH1 0x20 ADD SWAP1 DUP2 MSTORE PUSH1 0x20 ADD PUSH1 0x0 KECCAK256 PUSH1 0x1 ADD PUSH1 0x0 SWAP1 SLOAD SWAP1 PUSH2 0x100 EXP SWAP1 DIV PUSH4 0xFFFFFFFF AND PUSH1 0xA PUSH2 0x52B SWAP2 SWAP1 PUSH2 0x1389 JUMP JUMPDEST PUSH1 0x65 PUSH1 0x0 DUP8 PUSH20 0xFFFFFFFFFFFFFFFFFFFFFFFFFFFFFFFFFFFFFFFF AND PUSH20 0xFFFFFFFFFFFFFFFFFFFFFFFFFFFFFFFFFFFFFFFF AND DUP2 MSTORE PUSH1 0x20 ADD SWAP1 DUP2 MSTORE PUSH1 0x20 ADD PUSH1 0x0 KECCAK256 PUSH1 0x0 DUP7 PUSH20 0xFFFFFFFFFFFFFFFFFFFFFFFFFFFFFFFFFFFFFFFF AND PUSH20 0xFFFFFFFFFFFFFFFFFFFFFFFFFFFFFFFFFFFFFFFF AND DUP2 MSTORE PUSH1 0x20 ADD SWAP1 DUP2 MSTORE PUSH1 0x20 ADD PUSH1 0x0 KECCAK256 PUSH1 0x0 ADD SLOAD DUP4 PUSH2 0x5B6 SWAP2 SWAP1 PUSH2 0x13D4 JUMP JUMPDEST PUSH2 0x5C0 SWAP2 SWAP1 PUSH2 0x145D JUMP JUMPDEST SWAP1 POP PUSH2 0x5CE DUP6 DUP6 DUP5 DUP5 PUSH2 0x805 JUMP JUMPDEST POP POP POP POP POP JUMP JUMPDEST PUSH2 0x5DD PUSH2 0x6CD JUMP JUMPDEST PUSH20 0xFFFFFFFFFFFFFFFFFFFFFFFFFFFFFFFFFFFFFFFF AND PUSH2 0x5FB PUSH2 0x2F6 JUMP JUMPDEST PUSH20 0xFFFFFFFFFFFFFFFFFFFFFFFFFFFFFFFFFFFFFFFF AND EQ PUSH2 0x651 JUMPI PUSH1 0x40 MLOAD PUSH32 0x8C379A000000000000000000000000000000000000000000000000000000000 DUP2 MSTORE PUSH1 0x4 ADD PUSH2 0x648 SWAP1 PUSH2 0x1051 JUMP JUMPDEST PUSH1 0x40 MLOAD DUP1 SWAP2 SUB SWAP1 REVERT JUMPDEST PUSH1 0x0 PUSH20 0xFFFFFFFFFFFFFFFFFFFFFFFFFFFFFFFFFFFFFFFF AND DUP2 PUSH20 0xFFFFFFFFFFFFFFFFFFFFFFFFFFFFFFFFFFFFFFFF AND EQ ISZERO PUSH2 0x6C1 JUMPI PUSH1 0x40 MLOAD PUSH32 0x8C379A000000000000000000000000000000000000000000000000000000000 DUP2 MSTORE PUSH1 0x4 ADD PUSH2 0x6B8 SWAP1 PUSH2 0x1500 JUMP JUMPDEST PUSH1 0x40 MLOAD DUP1 SWAP2 SUB SWAP1 REVERT JUMPDEST PUSH2 0x6CA DUP2 PUSH2 0x6D5 JUMP JUMPDEST POP JUMP JUMPDEST PUSH1 0x0 CALLER SWAP1 POP SWAP1 JUMP JUMPDEST PUSH1 0x0 PUSH1 0x33 PUSH1 0x0 SWAP1 SLOAD SWAP1 PUSH2 0x100 EXP SWAP1 DIV PUSH20 0xFFFFFFFFFFFFFFFFFFFFFFFFFFFFFFFFFFFFFFFF AND SWAP1 POP DUP2 PUSH1 0x33 PUSH1 0x0 PUSH2 0x100 EXP DUP2 SLOAD DUP2 PUSH20 0xFFFFFFFFFFFFFFFFFFFFFFFFFFFFFFFFFFFFFFFF MUL NOT AND SWAP1 DUP4 PUSH20 0xFFFFFFFFFFFFFFFFFFFFFFFFFFFFFFFFFFFFFFFF AND MUL OR SWAP1 SSTORE POP DUP2 PUSH20 0xFFFFFFFFFFFFFFFFFFFFFFFFFFFFFFFFFFFFFFFF AND DUP2 PUSH20 0xFFFFFFFFFFFFFFFFFFFFFFFFFFFFFFFFFFFFFFFF AND PUSH32 0x8BE0079C531659141344CD1FD0A4F28419497F9722A3DAAFE3B4186F6B6457E0 PUSH1 0x40 MLOAD PUSH1 0x40 MLOAD DUP1 SWAP2 SUB SWAP1 LOG3 POP POP JUMP JUMPDEST PUSH1 0x0 PUSH2 0x7A6 ADDRESS PUSH2 0x8A1 JUMP JUMPDEST ISZERO SWAP1 POP SWAP1 JUMP JUMPDEST PUSH1 0x0 PUSH1 0x1 SWAP1 SLOAD SWAP1 PUSH2 0x100 EXP SWAP1 DIV PUSH1 0xFF AND PUSH2 0x7FB JUMPI PUSH1 0x40 MLOAD PUSH32 0x8C379A000000000000000000000000000000000000000000000000000000000 DUP2 MSTORE PUSH1 0x4 ADD PUSH2 0x7F2 SWAP1 PUSH2 0x1592 JUMP JUMPDEST PUSH1 0x40 MLOAD DUP1 SWAP2 SUB SWAP1 REVERT JUMPDEST PUSH2 0x803 PUSH2 0x8C4 JUMP JUMPDEST JUMP JUMPDEST PUSH1 0x0 DUP3 GT PUSH2 0x848 JUMPI PUSH1 0x40 MLOAD PUSH32 0x8C379A000000000000000000000000000000000000000000000000000000000 DUP2 MSTORE PUSH1 0x4 ADD PUSH2 0x83F SWAP1 PUSH2 0x1624 JUMP JUMPDEST PUSH1 0x40 MLOAD DUP1 SWAP2 SUB SWAP1 REVERT JUMPDEST PUSH2 0x853 DUP5 CALLER DUP5 PUSH2 0x925 JUMP JUMPDEST PUSH2 0x85E DUP4 CALLER DUP4 PUSH2 0x992 JUMP JUMPDEST PUSH32 0xFA2DDA1CC1B86E41239702756B13EFFBC1A092B5C57E3AD320FBE4F3B13FE235 DUP5 DUP5 DUP5 DUP5 PUSH1 0x40 MLOAD PUSH2 0x893 SWAP5 SWAP4 SWAP3 SWAP2 SWAP1 PUSH2 0x1644 JUMP JUMPDEST PUSH1 0x40 MLOAD DUP1 SWAP2 SUB SWAP1 LOG1 POP POP POP POP JUMP JUMPDEST PUSH1 0x0 DUP1 DUP3 PUSH20 0xFFFFFFFFFFFFFFFFFFFFFFFFFFFFFFFFFFFFFFFF AND EXTCODESIZE GT SWAP1 POP SWAP2 SWAP1 POP JUMP JUMPDEST PUSH1 0x0 PUSH1 0x1 SWAP1 SLOAD SWAP1 PUSH2 0x100 EXP SWAP1 DIV PUSH1 0xFF AND PUSH2 0x913 JUMPI PUSH1 0x40 MLOAD PUSH32 0x8C379A000000000000000000000000000000000000000000000000000000000 DUP2 MSTORE PUSH1 0x4 ADD PUSH2 0x90A SWAP1 PUSH2 0x1592 JUMP JUMPDEST PUSH1 0x40 MLOAD DUP1 SWAP2 SUB SWAP1 REVERT JUMPDEST PUSH2 0x923 PUSH2 0x91E PUSH2 0x6CD JUMP JUMPDEST PUSH2 0x6D5 JUMP JUMPDEST JUMP JUMPDEST PUSH1 0x0 DUP4 SWAP1 POP PUSH1 0x0 PUSH20 0xFFFFFFFFFFFFFFFFFFFFFFFFFFFFFFFFFFFFFFFF AND DUP5 PUSH20 0xFFFFFFFFFFFFFFFFFFFFFFFFFFFFFFFFFFFFFFFF AND EQ PUSH2 0x98C JUMPI PUSH2 0x98B DUP4 ADDRESS DUP5 DUP5 PUSH20 0xFFFFFFFFFFFFFFFFFFFFFFFFFFFFFFFFFFFFFFFF AND PUSH2 0xAB1 SWAP1 SWAP4 SWAP3 SWAP2 SWAP1 PUSH4 0xFFFFFFFF AND JUMP JUMPDEST JUMPDEST POP POP POP POP JUMP JUMPDEST PUSH1 0x0 DUP4 SWAP1 POP PUSH1 0x0 PUSH20 0xFFFFFFFFFFFFFFFFFFFFFFFFFFFFFFFFFFFFFFFF AND DUP5 PUSH20 0xFFFFFFFFFFFFFFFFFFFFFFFFFFFFFFFFFFFFFFFF AND EQ ISZERO PUSH2 0xA7F JUMPI PUSH1 0x0 DUP4 PUSH20 0xFFFFFFFFFFFFFFFFFFFFFFFFFFFFFFFFFFFFFFFF AND DUP4 PUSH1 0x40 MLOAD PUSH2 0x9F2 SWAP1 PUSH2 0x16BA JUMP JUMPDEST PUSH1 0x0 PUSH1 0x40 MLOAD DUP1 DUP4 SUB DUP2 DUP6 DUP8 GAS CALL SWAP3 POP POP POP RETURNDATASIZE DUP1 PUSH1 0x0 DUP2 EQ PUSH2 0xA2F JUMPI PUSH1 0x40 MLOAD SWAP2 POP PUSH1 0x1F NOT PUSH1 0x3F RETURNDATASIZE ADD AND DUP3 ADD PUSH1 0x40 MSTORE RETURNDATASIZE DUP3 MSTORE RETURNDATASIZE PUSH1 0x0 PUSH1 0x20 DUP5 ADD RETURNDATACOPY PUSH2 0xA34 JUMP JUMPDEST PUSH1 0x60 SWAP2 POP JUMPDEST POP POP SWAP1 POP DUP1 PUSH2 0xA78 JUMPI PUSH1 0x40 MLOAD PUSH32 0x8C379A000000000000000000000000000000000000000000000000000000000 DUP2 MSTORE PUSH1 0x4 ADD PUSH2 0xA6F SWAP1 PUSH2 0x171B JUMP JUMPDEST PUSH1 0x40 MLOAD DUP1 SWAP2 SUB SWAP1 REVERT JUMPDEST POP POP PUSH2 0xAAC JUMP JUMPDEST PUSH2 0xAAA DUP4 DUP4 DUP4 PUSH20 0xFFFFFFFFFFFFFFFFFFFFFFFFFFFFFFFFFFFFFFFF AND PUSH2 0xB3A SWAP1 SWAP3 SWAP2 SWAP1 PUSH4 0xFFFFFFFF AND JUMP JUMPDEST POP JUMPDEST POP POP POP JUMP JUMPDEST PUSH2 0xB34 DUP5 PUSH4 0x23B872DD PUSH1 0xE0 SHL DUP6 DUP6 DUP6 PUSH1 0x40 MLOAD PUSH1 0x24 ADD PUSH2 0xAD2 SWAP4 SWAP3 SWAP2 SWAP1 PUSH2 0x173B JUMP JUMPDEST PUSH1 0x40 MLOAD PUSH1 0x20 DUP2 DUP4 SUB SUB DUP2 MSTORE SWAP1 PUSH1 0x40 MSTORE SWAP1 PUSH28 0xFFFFFFFFFFFFFFFFFFFFFFFFFFFFFFFFFFFFFFFFFFFFFFFFFFFFFFFF NOT AND PUSH1 0x20 DUP3 ADD DUP1 MLOAD PUSH28 0xFFFFFFFFFFFFFFFFFFFFFFFFFFFFFFFFFFFFFFFFFFFFFFFFFFFFFFFF DUP4 DUP2 DUP4 AND OR DUP4 MSTORE POP POP POP POP PUSH2 0xBC0 JUMP JUMPDEST POP POP POP POP JUMP JUMPDEST PUSH2 0xBBB DUP4 PUSH4 0xA9059CBB PUSH1 0xE0 SHL DUP5 DUP5 PUSH1 0x40 MLOAD PUSH1 0x24 ADD PUSH2 0xB59 SWAP3 SWAP2 SWAP1 PUSH2 0x1772 JUMP JUMPDEST PUSH1 0x40 MLOAD PUSH1 0x20 DUP2 DUP4 SUB SUB DUP2 MSTORE SWAP1 PUSH1 0x40 MSTORE SWAP1 PUSH28 0xFFFFFFFFFFFFFFFFFFFFFFFFFFFFFFFFFFFFFFFFFFFFFFFFFFFFFFFF NOT AND PUSH1 0x20 DUP3 ADD DUP1 MLOAD PUSH28 0xFFFFFFFFFFFFFFFFFFFFFFFFFFFFFFFFFFFFFFFFFFFFFFFFFFFFFFFF DUP4 DUP2 DUP4 AND OR DUP4 MSTORE POP POP POP POP PUSH2 0xBC0 JUMP JUMPDEST POP POP POP JUMP JUMPDEST PUSH1 0x0 PUSH2 0xC22 DUP3 PUSH1 0x40 MLOAD DUP1 PUSH1 0x40 ADD PUSH1 0x40 MSTORE DUP1 PUSH1 0x20 DUP2 MSTORE PUSH1 0x20 ADD PUSH32 0x5361666545524332303A206C6F772D6C6576656C2063616C6C206661696C6564 DUP2 MSTORE POP DUP6 PUSH20 0xFFFFFFFFFFFFFFFFFFFFFFFFFFFFFFFFFFFFFFFF AND PUSH2 0xC87 SWAP1 SWAP3 SWAP2 SWAP1 PUSH4 0xFFFFFFFF AND JUMP JUMPDEST SWAP1 POP PUSH1 0x0 DUP2 MLOAD GT ISZERO PUSH2 0xC82 JUMPI DUP1 DUP1 PUSH1 0x20 ADD SWAP1 MLOAD DUP2 ADD SWAP1 PUSH2 0xC42 SWAP2 SWAP1 PUSH2 0x17D3 JUMP JUMPDEST PUSH2 0xC81 JUMPI PUSH1 0x40 MLOAD PUSH32 0x8C379A000000000000000000000000000000000000000000000000000000000 DUP2 MSTORE PUSH1 0x4 ADD PUSH2 0xC78 SWAP1 PUSH2 0x1872 JUMP JUMPDEST PUSH1 0x40 MLOAD DUP1 SWAP2 SUB SWAP1 REVERT JUMPDEST JUMPDEST POP POP POP JUMP JUMPDEST PUSH1 0x60 PUSH2 0xC96 DUP5 DUP5 PUSH1 0x0 DUP6 PUSH2 0xC9F JUMP JUMPDEST SWAP1 POP SWAP4 SWAP3 POP POP POP JUMP JUMPDEST PUSH1 0x60 DUP3 SELFBALANCE LT ISZERO PUSH2 0xCE4 JUMPI PUSH1 0x40 MLOAD PUSH32 0x8C379A000000000000000000000000000000000000000000000000000000000 DUP2 MSTORE PUSH1 0x4 ADD PUSH2 0xCDB SWAP1 PUSH2 0x1904 JUMP JUMPDEST PUSH1 0x40 MLOAD DUP1 SWAP2 SUB SWAP1 REVERT JUMPDEST PUSH2 0xCED DUP6 PUSH2 0x8A1 JUMP JUMPDEST PUSH2 0xD2C JUMPI PUSH1 0x40 MLOAD PUSH32 0x8C379A000000000000000000000000000000000000000000000000000000000 DUP2 MSTORE PUSH1 0x4 ADD PUSH2 0xD23 SWAP1 PUSH2 0x1970 JUMP JUMPDEST PUSH1 0x40 MLOAD DUP1 SWAP2 SUB SWAP1 REVERT JUMPDEST PUSH1 0x0 DUP1 DUP7 PUSH20 0xFFFFFFFFFFFFFFFFFFFFFFFFFFFFFFFFFFFFFFFF AND DUP6 DUP8 PUSH1 0x40 MLOAD PUSH2 0xD55 SWAP2 SWAP1 PUSH2 0x19FF JUMP JUMPDEST PUSH1 0x0 PUSH1 0x40 MLOAD DUP1 DUP4 SUB DUP2 DUP6 DUP8 GAS CALL SWAP3 POP POP POP RETURNDATASIZE DUP1 PUSH1 0x0 DUP2 EQ PUSH2 0xD92 JUMPI PUSH1 0x40 MLOAD SWAP2 POP PUSH1 0x1F NOT PUSH1 0x3F RETURNDATASIZE ADD AND DUP3 ADD PUSH1 0x40 MSTORE RETURNDATASIZE DUP3 MSTORE RETURNDATASIZE PUSH1 0x0 PUSH1 0x20 DUP5 ADD RETURNDATACOPY PUSH2 0xD97 JUMP JUMPDEST PUSH1 0x60 SWAP2 POP JUMPDEST POP SWAP2 POP SWAP2 POP PUSH2 0xDA7 DUP3 DUP3 DUP7 PUSH2 0xDB3 JUMP JUMPDEST SWAP3 POP POP POP SWAP5 SWAP4 POP POP POP POP JUMP JUMPDEST PUSH1 0x60 DUP4 ISZERO PUSH2 0xDC3 JUMPI DUP3 SWAP1 POP PUSH2 0xE13 JUMP JUMPDEST PUSH1 0x0 DUP4 MLOAD GT ISZERO PUSH2 0xDD6 JUMPI DUP3 MLOAD DUP1 DUP5 PUSH1 0x20 ADD REVERT JUMPDEST DUP2 PUSH1 0x40 MLOAD PUSH32 0x8C379A000000000000000000000000000000000000000000000000000000000 DUP2 MSTORE PUSH1 0x4 ADD PUSH2 0xE0A SWAP2 SWAP1 PUSH2 0x1A6B JUMP JUMPDEST PUSH1 0x40 MLOAD DUP1 SWAP2 SUB SWAP1 REVERT JUMPDEST SWAP4 SWAP3 POP POP POP JUMP JUMPDEST PUSH1 0x0 DUP1 REVERT JUMPDEST PUSH1 0x0 PUSH20 0xFFFFFFFFFFFFFFFFFFFFFFFFFFFFFFFFFFFFFFFF DUP3 AND SWAP1 POP SWAP2 SWAP1 POP JUMP JUMPDEST PUSH1 0x0 PUSH2 0xE4A DUP3 PUSH2 0xE1F JUMP JUMPDEST SWAP1 POP SWAP2 SWAP1 POP JUMP JUMPDEST PUSH2 0xE5A DUP2 PUSH2 0xE3F JUMP JUMPDEST DUP2 EQ PUSH2 0xE65 JUMPI PUSH1 0x0 DUP1 REVERT JUMPDEST POP JUMP JUMPDEST PUSH1 0x0 DUP2 CALLDATALOAD SWAP1 POP PUSH2 0xE77 DUP2 PUSH2 0xE51 JUMP JUMPDEST SWAP3 SWAP2 POP POP JUMP JUMPDEST PUSH1 0x0 DUP1 PUSH1 0x40 DUP4 DUP6 SUB SLT ISZERO PUSH2 0xE94 JUMPI PUSH2 0xE93 PUSH2 0xE1A JUMP JUMPDEST JUMPDEST PUSH1 0x0 PUSH2 0xEA2 DUP6 DUP3 DUP7 ADD PUSH2 0xE68 JUMP JUMPDEST SWAP3 POP POP PUSH1 0x20 PUSH2 0xEB3 DUP6 DUP3 DUP7 ADD PUSH2 0xE68 JUMP JUMPDEST SWAP2 POP POP SWAP3 POP SWAP3 SWAP1 POP JUMP JUMPDEST PUSH1 0x0 DUP2 SWAP1 POP SWAP2 SWAP1 POP JUMP JUMPDEST PUSH2 0xED0 DUP2 PUSH2 0xEBD JUMP JUMPDEST DUP3 MSTORE POP POP JUMP JUMPDEST PUSH1 0x0 PUSH4 0xFFFFFFFF DUP3 AND SWAP1 POP SWAP2 SWAP1 POP JUMP JUMPDEST PUSH2 0xEEF DUP2 PUSH2 0xED6 JUMP JUMPDEST DUP3 MSTORE POP POP JUMP JUMPDEST PUSH1 0x0 PUSH1 0x40 DUP3 ADD SWAP1 POP PUSH2 0xF0A PUSH1 0x0 DUP4 ADD DUP6 PUSH2 0xEC7 JUMP JUMPDEST PUSH2 0xF17 PUSH1 0x20 DUP4 ADD DUP5 PUSH2 0xEE6 JUMP JUMPDEST SWAP4 SWAP3 POP POP POP JUMP JUMPDEST PUSH2 0xF27 DUP2 PUSH2 0xE3F JUMP JUMPDEST DUP3 MSTORE POP POP JUMP JUMPDEST PUSH1 0x0 PUSH1 0x20 DUP3 ADD SWAP1 POP PUSH2 0xF42 PUSH1 0x0 DUP4 ADD DUP5 PUSH2 0xF1E JUMP JUMPDEST SWAP3 SWAP2 POP POP JUMP JUMPDEST PUSH2 0xF51 DUP2 PUSH2 0xEBD JUMP JUMPDEST DUP2 EQ PUSH2 0xF5C JUMPI PUSH1 0x0 DUP1 REVERT JUMPDEST POP JUMP JUMPDEST PUSH1 0x0 DUP2 CALLDATALOAD SWAP1 POP PUSH2 0xF6E DUP2 PUSH2 0xF48 JUMP JUMPDEST SWAP3 SWAP2 POP POP JUMP JUMPDEST PUSH1 0x0 DUP1 PUSH1 0x0 PUSH1 0x60 DUP5 DUP7 SUB SLT ISZERO PUSH2 0xF8D JUMPI PUSH2 0xF8C PUSH2 0xE1A JUMP JUMPDEST JUMPDEST PUSH1 0x0 PUSH2 0xF9B DUP7 DUP3 DUP8 ADD PUSH2 0xE68 JUMP JUMPDEST SWAP4 POP POP PUSH1 0x20 PUSH2 0xFAC DUP7 DUP3 DUP8 ADD PUSH2 0xE68 JUMP JUMPDEST SWAP3 POP POP PUSH1 0x40 PUSH2 0xFBD DUP7 DUP3 DUP8 ADD PUSH2 0xF5F JUMP JUMPDEST SWAP2 POP POP SWAP3 POP SWAP3 POP SWAP3 JUMP JUMPDEST PUSH1 0x0 PUSH1 0x20 DUP3 DUP5 SUB SLT ISZERO PUSH2 0xFDD JUMPI PUSH2 0xFDC PUSH2 0xE1A JUMP JUMPDEST JUMPDEST PUSH1 0x0 PUSH2 0xFEB DUP5 DUP3 DUP6 ADD PUSH2 0xE68 JUMP JUMPDEST SWAP2 POP POP SWAP3 SWAP2 POP POP JUMP JUMPDEST PUSH1 0x0 DUP3 DUP3 MSTORE PUSH1 0x20 DUP3 ADD SWAP1 POP SWAP3 SWAP2 POP POP JUMP JUMPDEST PUSH32 0x4F776E61626C653A2063616C6C6572206973206E6F7420746865206F776E6572 PUSH1 0x0 DUP3 ADD MSTORE POP JUMP JUMPDEST PUSH1 0x0 PUSH2 0x103B PUSH1 0x20 DUP4 PUSH2 0xFF4 JUMP JUMPDEST SWAP2 POP PUSH2 0x1046 DUP3 PUSH2 0x1005 JUMP JUMPDEST PUSH1 0x20 DUP3 ADD SWAP1 POP SWAP2 SWAP1 POP JUMP JUMPDEST PUSH1 0x0 PUSH1 0x20 DUP3 ADD SWAP1 POP DUP2 DUP2 SUB PUSH1 0x0 DUP4 ADD MSTORE PUSH2 0x106A DUP2 PUSH2 0x102E JUMP JUMPDEST SWAP1 POP SWAP2 SWAP1 POP JUMP JUMPDEST PUSH32 0x496E697469616C697A61626C653A20636F6E747261637420697320616C726561 PUSH1 0x0 DUP3 ADD MSTORE PUSH32 0x647920696E697469616C697A6564000000000000000000000000000000000000 PUSH1 0x20 DUP3 ADD MSTORE POP JUMP JUMPDEST PUSH1 0x0 PUSH2 0x10CD PUSH1 0x2E DUP4 PUSH2 0xFF4 JUMP JUMPDEST SWAP2 POP PUSH2 0x10D8 DUP3 PUSH2 0x1071 JUMP JUMPDEST PUSH1 0x40 DUP3 ADD SWAP1 POP SWAP2 SWAP1 POP JUMP JUMPDEST PUSH1 0x0 PUSH1 0x20 DUP3 ADD SWAP1 POP DUP2 DUP2 SUB PUSH1 0x0 DUP4 ADD MSTORE PUSH2 0x10FC DUP2 PUSH2 0x10C0 JUMP JUMPDEST SWAP1 POP SWAP2 SWAP1 POP JUMP JUMPDEST PUSH32 0x43616E6E6F74207472616E73666572203220746F6B656E20776974682073616D PUSH1 0x0 DUP3 ADD MSTORE PUSH32 0x6520616464726573730000000000000000000000000000000000000000000000 PUSH1 0x20 DUP3 ADD MSTORE POP JUMP JUMPDEST PUSH1 0x0 PUSH2 0x115F PUSH1 0x29 DUP4 PUSH2 0xFF4 JUMP JUMPDEST SWAP2 POP PUSH2 0x116A DUP3 PUSH2 0x1103 JUMP JUMPDEST PUSH1 0x40 DUP3 ADD SWAP1 POP SWAP2 SWAP1 POP JUMP JUMPDEST PUSH1 0x0 PUSH1 0x20 DUP3 ADD SWAP1 POP DUP2 DUP2 SUB PUSH1 0x0 DUP4 ADD MSTORE PUSH2 0x118E DUP2 PUSH2 0x1152 JUMP JUMPDEST SWAP1 POP SWAP2 SWAP1 POP JUMP JUMPDEST PUSH32 0x5468652072617465206265747765656E2074686973203220746F6B656E732069 PUSH1 0x0 DUP3 ADD MSTORE PUSH32 0x7320756E617661696C61626C6500000000000000000000000000000000000000 PUSH1 0x20 DUP3 ADD MSTORE POP JUMP JUMPDEST PUSH1 0x0 PUSH2 0x11F1 PUSH1 0x2D DUP4 PUSH2 0xFF4 JUMP JUMPDEST SWAP2 POP PUSH2 0x11FC DUP3 PUSH2 0x1195 JUMP JUMPDEST PUSH1 0x40 DUP3 ADD SWAP1 POP SWAP2 SWAP1 POP JUMP JUMPDEST PUSH1 0x0 PUSH1 0x20 DUP3 ADD SWAP1 POP DUP2 DUP2 SUB PUSH1 0x0 DUP4 ADD MSTORE PUSH2 0x1220 DUP2 PUSH2 0x11E4 JUMP JUMPDEST SWAP1 POP SWAP2 SWAP1 POP JUMP JUMPDEST PUSH32 0x4E487B7100000000000000000000000000000000000000000000000000000000 PUSH1 0x0 MSTORE PUSH1 0x11 PUSH1 0x4 MSTORE PUSH1 0x24 PUSH1 0x0 REVERT JUMPDEST PUSH1 0x0 DUP2 PUSH1 0x1 SHR SWAP1 POP SWAP2 SWAP1 POP JUMP JUMPDEST PUSH1 0x0 DUP1 DUP3 SWAP2 POP DUP4 SWAP1 POP JUMPDEST PUSH1 0x1 DUP6 GT ISZERO PUSH2 0x12AD JUMPI DUP1 DUP7 DIV DUP2 GT ISZERO PUSH2 0x1289 JUMPI PUSH2 0x1288 PUSH2 0x1227 JUMP JUMPDEST JUMPDEST PUSH1 0x1 DUP6 AND ISZERO PUSH2 0x1298 JUMPI DUP1 DUP3 MUL SWAP2 POP JUMPDEST DUP1 DUP2 MUL SWAP1 POP PUSH2 0x12A6 DUP6 PUSH2 0x1256 JUMP JUMPDEST SWAP5 POP PUSH2 0x126D JUMP JUMPDEST SWAP5 POP SWAP5 SWAP3 POP POP POP JUMP JUMPDEST PUSH1 0x0 DUP3 PUSH2 0x12C6 JUMPI PUSH1 0x1 SWAP1 POP PUSH2 0x1382 JUMP JUMPDEST DUP2 PUSH2 0x12D4 JUMPI PUSH1 0x0 SWAP1 POP PUSH2 0x1382 JUMP JUMPDEST DUP2 PUSH1 0x1 DUP2 EQ PUSH2 0x12EA JUMPI PUSH1 0x2 DUP2 EQ PUSH2 0x12F4 JUMPI PUSH2 0x1323 JUMP JUMPDEST PUSH1 0x1 SWAP2 POP POP PUSH2 0x1382 JUMP JUMPDEST PUSH1 0xFF DUP5 GT ISZERO PUSH2 0x1306 JUMPI PUSH2 0x1305 PUSH2 0x1227 JUMP JUMPDEST JUMPDEST DUP4 PUSH1 0x2 EXP SWAP2 POP DUP5 DUP3 GT ISZERO PUSH2 0x131D JUMPI PUSH2 0x131C PUSH2 0x1227 JUMP JUMPDEST JUMPDEST POP PUSH2 0x1382 JUMP JUMPDEST POP PUSH1 0x20 DUP4 LT PUSH2 0x133 DUP4 LT AND PUSH1 0x4E DUP5 LT PUSH1 0xB DUP5 LT AND OR ISZERO PUSH2 0x1358 JUMPI DUP3 DUP3 EXP SWAP1 POP DUP4 DUP2 GT ISZERO PUSH2 0x1353 JUMPI PUSH2 0x1352 PUSH2 0x1227 JUMP JUMPDEST JUMPDEST PUSH2 0x1382 JUMP JUMPDEST PUSH2 0x1365 DUP5 DUP5 DUP5 PUSH1 0x1 PUSH2 0x1263 JUMP JUMPDEST SWAP3 POP SWAP1 POP DUP2 DUP5 DIV DUP2 GT ISZERO PUSH2 0x137C JUMPI PUSH2 0x137B PUSH2 0x1227 JUMP JUMPDEST JUMPDEST DUP2 DUP2 MUL SWAP1 POP JUMPDEST SWAP4 SWAP3 POP POP POP JUMP JUMPDEST PUSH1 0x0 PUSH2 0x1394 DUP3 PUSH2 0xEBD JUMP JUMPDEST SWAP2 POP PUSH2 0x139F DUP4 PUSH2 0xED6 JUMP JUMPDEST SWAP3 POP PUSH2 0x13CC PUSH32 0xFFFFFFFFFFFFFFFFFFFFFFFFFFFFFFFFFFFFFFFFFFFFFFFFFFFFFFFFFFFFFFFF DUP5 DUP5 PUSH2 0x12B6 JUMP JUMPDEST SWAP1 POP SWAP3 SWAP2 POP POP JUMP JUMPDEST PUSH1 0x0 PUSH2 0x13DF DUP3 PUSH2 0xEBD JUMP JUMPDEST SWAP2 POP PUSH2 0x13EA DUP4 PUSH2 0xEBD JUMP JUMPDEST SWAP3 POP DUP2 PUSH32 0xFFFFFFFFFFFFFFFFFFFFFFFFFFFFFFFFFFFFFFFFFFFFFFFFFFFFFFFFFFFFFFFF DIV DUP4 GT DUP3 ISZERO ISZERO AND ISZERO PUSH2 0x1423 JUMPI PUSH2 0x1422 PUSH2 0x1227 JUMP JUMPDEST JUMPDEST DUP3 DUP3 MUL SWAP1 POP SWAP3 SWAP2 POP POP JUMP JUMPDEST PUSH32 0x4E487B7100000000000000000000000000000000000000000000000000000000 PUSH1 0x0 MSTORE PUSH1 0x12 PUSH1 0x4 MSTORE PUSH1 0x24 PUSH1 0x0 REVERT JUMPDEST PUSH1 0x0 PUSH2 0x1468 DUP3 PUSH2 0xEBD JUMP JUMPDEST SWAP2 POP PUSH2 0x1473 DUP4 PUSH2 0xEBD JUMP JUMPDEST SWAP3 POP DUP3 PUSH2 0x1483 JUMPI PUSH2 0x1482 PUSH2 0x142E JUMP JUMPDEST JUMPDEST DUP3 DUP3 DIV SWAP1 POP SWAP3 SWAP2 POP POP JUMP JUMPDEST PUSH32 0x4F776E61626C653A206E6577206F776E657220697320746865207A65726F2061 PUSH1 0x0 DUP3 ADD MSTORE PUSH32 0x6464726573730000000000000000000000000000000000000000000000000000 PUSH1 0x20 DUP3 ADD MSTORE POP JUMP JUMPDEST PUSH1 0x0 PUSH2 0x14EA PUSH1 0x26 DUP4 PUSH2 0xFF4 JUMP JUMPDEST SWAP2 POP PUSH2 0x14F5 DUP3 PUSH2 0x148E JUMP JUMPDEST PUSH1 0x40 DUP3 ADD SWAP1 POP SWAP2 SWAP1 POP JUMP JUMPDEST PUSH1 0x0 PUSH1 0x20 DUP3 ADD SWAP1 POP DUP2 DUP2 SUB PUSH1 0x0 DUP4 ADD MSTORE PUSH2 0x1519 DUP2 PUSH2 0x14DD JUMP JUMPDEST SWAP1 POP SWAP2 SWAP1 POP JUMP JUMPDEST PUSH32 0x496E697469616C697A61626C653A20636F6E7472616374206973206E6F742069 PUSH1 0x0 DUP3 ADD MSTORE PUSH32 0x6E697469616C697A696E67000000000000000000000000000000000000000000 PUSH1 0x20 DUP3 ADD MSTORE POP JUMP JUMPDEST PUSH1 0x0 PUSH2 0x157C PUSH1 0x2B DUP4 PUSH2 0xFF4 JUMP JUMPDEST SWAP2 POP PUSH2 0x1587 DUP3 PUSH2 0x1520 JUMP JUMPDEST PUSH1 0x40 DUP3 ADD SWAP1 POP SWAP2 SWAP1 POP JUMP JUMPDEST PUSH1 0x0 PUSH1 0x20 DUP3 ADD SWAP1 POP DUP2 DUP2 SUB PUSH1 0x0 DUP4 ADD MSTORE PUSH2 0x15AB DUP2 PUSH2 0x156F JUMP JUMPDEST SWAP1 POP SWAP2 SWAP1 POP JUMP JUMPDEST PUSH32 0x43616E6E6F74207377617020746F6B656E20696620746F6B656E20616D6F756E PUSH1 0x0 DUP3 ADD MSTORE PUSH32 0x7420697320657175616C20746F20300000000000000000000000000000000000 PUSH1 0x20 DUP3 ADD MSTORE POP JUMP JUMPDEST PUSH1 0x0 PUSH2 0x160E PUSH1 0x2F DUP4 PUSH2 0xFF4 JUMP JUMPDEST SWAP2 POP PUSH2 0x1619 DUP3 PUSH2 0x15B2 JUMP JUMPDEST PUSH1 0x40 DUP3 ADD SWAP1 POP SWAP2 SWAP1 POP JUMP JUMPDEST PUSH1 0x0 PUSH1 0x20 DUP3 ADD SWAP1 POP DUP2 DUP2 SUB PUSH1 0x0 DUP4 ADD MSTORE PUSH2 0x163D DUP2 PUSH2 0x1601 JUMP JUMPDEST SWAP1 POP SWAP2 SWAP1 POP JUMP JUMPDEST PUSH1 0x0 PUSH1 0x80 DUP3 ADD SWAP1 POP PUSH2 0x1659 PUSH1 0x0 DUP4 ADD DUP8 PUSH2 0xF1E JUMP JUMPDEST PUSH2 0x1666 PUSH1 0x20 DUP4 ADD DUP7 PUSH2 0xF1E JUMP JUMPDEST PUSH2 0x1673 PUSH1 0x40 DUP4 ADD DUP6 PUSH2 0xEC7 JUMP JUMPDEST PUSH2 0x1680 PUSH1 0x60 DUP4 ADD DUP5 PUSH2 0xEC7 JUMP JUMPDEST SWAP6 SWAP5 POP POP POP POP POP JUMP JUMPDEST PUSH1 0x0 DUP2 SWAP1 POP SWAP3 SWAP2 POP POP JUMP JUMPDEST POP JUMP JUMPDEST PUSH1 0x0 PUSH2 0x16A4 PUSH1 0x0 DUP4 PUSH2 0x1689 JUMP JUMPDEST SWAP2 POP PUSH2 0x16AF DUP3 PUSH2 0x1694 JUMP JUMPDEST PUSH1 0x0 DUP3 ADD SWAP1 POP SWAP2 SWAP1 POP JUMP JUMPDEST PUSH1 0x0 PUSH2 0x16C5 DUP3 PUSH2 0x1697 JUMP JUMPDEST SWAP2 POP DUP2 SWAP1 POP SWAP2 SWAP1 POP JUMP JUMPDEST PUSH32 0x5472616E7366657220746F6B656E206661696C65640000000000000000000000 PUSH1 0x0 DUP3 ADD MSTORE POP JUMP JUMPDEST PUSH1 0x0 PUSH2 0x1705 PUSH1 0x15 DUP4 PUSH2 0xFF4 JUMP JUMPDEST SWAP2 POP PUSH2 0x1710 DUP3 PUSH2 0x16CF JUMP JUMPDEST PUSH1 0x20 DUP3 ADD SWAP1 POP SWAP2 SWAP1 POP JUMP JUMPDEST PUSH1 0x0 PUSH1 0x20 DUP3 ADD SWAP1 POP DUP2 DUP2 SUB PUSH1 0x0 DUP4 ADD MSTORE PUSH2 0x1734 DUP2 PUSH2 0x16F8 JUMP JUMPDEST SWAP1 POP SWAP2 SWAP1 POP JUMP JUMPDEST PUSH1 0x0 PUSH1 0x60 DUP3 ADD SWAP1 POP PUSH2 0x1750 PUSH1 0x0 DUP4 ADD DUP7 PUSH2 0xF1E JUMP JUMPDEST PUSH2 0x175D PUSH1 0x20 DUP4 ADD DUP6 PUSH2 0xF1E JUMP JUMPDEST PUSH2 0x176A PUSH1 0x40 DUP4 ADD DUP5 PUSH2 0xEC7 JUMP JUMPDEST SWAP5 SWAP4 POP POP POP POP JUMP JUMPDEST PUSH1 0x0 PUSH1 0x40 DUP3 ADD SWAP1 POP PUSH2 0x1787 PUSH1 0x0 DUP4 ADD DUP6 PUSH2 0xF1E JUMP JUMPDEST PUSH2 0x1794 PUSH1 0x20 DUP4 ADD DUP5 PUSH2 0xEC7 JUMP JUMPDEST SWAP4 SWAP3 POP POP POP JUMP JUMPDEST PUSH1 0x0 DUP2 ISZERO ISZERO SWAP1 POP SWAP2 SWAP1 POP JUMP JUMPDEST PUSH2 0x17B0 DUP2 PUSH2 0x179B JUMP JUMPDEST DUP2 EQ PUSH2 0x17BB JUMPI PUSH1 0x0 DUP1 REVERT JUMPDEST POP JUMP JUMPDEST PUSH1 0x0 DUP2 MLOAD SWAP1 POP PUSH2 0x17CD DUP2 PUSH2 0x17A7 JUMP JUMPDEST SWAP3 SWAP2 POP POP JUMP JUMPDEST PUSH1 0x0 PUSH1 0x20 DUP3 DUP5 SUB SLT ISZERO PUSH2 0x17E9 JUMPI PUSH2 0x17E8 PUSH2 0xE1A JUMP JUMPDEST JUMPDEST PUSH1 0x0 PUSH2 0x17F7 DUP5 DUP3 DUP6 ADD PUSH2 0x17BE JUMP JUMPDEST SWAP2 POP POP SWAP3 SWAP2 POP POP JUMP JUMPDEST PUSH32 0x5361666545524332303A204552433230206F7065726174696F6E20646964206E PUSH1 0x0 DUP3 ADD MSTORE PUSH32 0x6F74207375636365656400000000000000000000000000000000000000000000 PUSH1 0x20 DUP3 ADD MSTORE POP JUMP JUMPDEST PUSH1 0x0 PUSH2 0x185C PUSH1 0x2A DUP4 PUSH2 0xFF4 JUMP JUMPDEST SWAP2 POP PUSH2 0x1867 DUP3 PUSH2 0x1800 JUMP JUMPDEST PUSH1 0x40 DUP3 ADD SWAP1 POP SWAP2 SWAP1 POP JUMP JUMPDEST PUSH1 0x0 PUSH1 0x20 DUP3 ADD SWAP1 POP DUP2 DUP2 SUB PUSH1 0x0 DUP4 ADD MSTORE PUSH2 0x188B DUP2 PUSH2 0x184F JUMP JUMPDEST SWAP1 POP SWAP2 SWAP1 POP JUMP JUMPDEST PUSH32 0x416464726573733A20696E73756666696369656E742062616C616E636520666F PUSH1 0x0 DUP3 ADD MSTORE PUSH32 0x722063616C6C0000000000000000000000000000000000000000000000000000 PUSH1 0x20 DUP3 ADD MSTORE POP JUMP JUMPDEST PUSH1 0x0 PUSH2 0x18EE PUSH1 0x26 DUP4 PUSH2 0xFF4 JUMP JUMPDEST SWAP2 POP PUSH2 0x18F9 DUP3 PUSH2 0x1892 JUMP JUMPDEST PUSH1 0x40 DUP3 ADD SWAP1 POP SWAP2 SWAP1 POP JUMP JUMPDEST PUSH1 0x0 PUSH1 0x20 DUP3 ADD SWAP1 POP DUP2 DUP2 SUB PUSH1 0x0 DUP4 ADD MSTORE PUSH2 0x191D DUP2 PUSH2 0x18E1 JUMP JUMPDEST SWAP1 POP SWAP2 SWAP1 POP JUMP JUMPDEST PUSH32 0x416464726573733A2063616C6C20746F206E6F6E2D636F6E7472616374000000 PUSH1 0x0 DUP3 ADD MSTORE POP JUMP JUMPDEST PUSH1 0x0 PUSH2 0x195A PUSH1 0x1D DUP4 PUSH2 0xFF4 JUMP JUMPDEST SWAP2 POP PUSH2 0x1965 DUP3 PUSH2 0x1924 JUMP JUMPDEST PUSH1 0x20 DUP3 ADD SWAP1 POP SWAP2 SWAP1 POP JUMP JUMPDEST PUSH1 0x0 PUSH1 0x20 DUP3 ADD SWAP1 POP DUP2 DUP2 SUB PUSH1 0x0 DUP4 ADD MSTORE PUSH2 0x1989 DUP2 PUSH2 0x194D JUMP JUMPDEST SWAP1 POP SWAP2 SWAP1 POP JUMP JUMPDEST PUSH1 0x0 DUP2 MLOAD SWAP1 POP SWAP2 SWAP1 POP JUMP JUMPDEST PUSH1 0x0 JUMPDEST DUP4 DUP2 LT ISZERO PUSH2 0x19B9 JUMPI DUP1 DUP3 ADD MLOAD DUP2 DUP5 ADD MSTORE PUSH1 0x20 DUP2 ADD SWAP1 POP PUSH2 0x199E JUMP JUMPDEST DUP4 DUP2 GT ISZERO PUSH2 0x19C8 JUMPI PUSH1 0x0 DUP5 DUP5 ADD MSTORE JUMPDEST POP POP POP POP JUMP JUMPDEST PUSH1 0x0 PUSH2 0x19D9 DUP3 PUSH2 0x1990 JUMP JUMPDEST PUSH2 0x19E3 DUP2 DUP6 PUSH2 0x1689 JUMP JUMPDEST SWAP4 POP PUSH2 0x19F3 DUP2 DUP6 PUSH1 0x20 DUP7 ADD PUSH2 0x199B JUMP JUMPDEST DUP1 DUP5 ADD SWAP2 POP POP SWAP3 SWAP2 POP POP JUMP JUMPDEST PUSH1 0x0 PUSH2 0x1A0B DUP3 DUP5 PUSH2 0x19CE JUMP JUMPDEST SWAP2 POP DUP2 SWAP1 POP SWAP3 SWAP2 POP POP JUMP JUMPDEST PUSH1 0x0 DUP2 MLOAD SWAP1 POP SWAP2 SWAP1 POP JUMP JUMPDEST PUSH1 0x0 PUSH1 0x1F NOT PUSH1 0x1F DUP4 ADD AND SWAP1 POP SWAP2 SWAP1 POP JUMP JUMPDEST PUSH1 0x0 PUSH2 0x1A3D DUP3 PUSH2 0x1A16 JUMP JUMPDEST PUSH2 0x1A47 DUP2 DUP6 PUSH2 0xFF4 JUMP JUMPDEST SWAP4 POP PUSH2 0x1A57 DUP2 DUP6 PUSH1 0x20 DUP7 ADD PUSH2 0x199B JUMP JUMPDEST PUSH2 0x1A60 DUP2 PUSH2 0x1A21 JUMP JUMPDEST DUP5 ADD SWAP2 POP POP SWAP3 SWAP2 POP POP JUMP JUMPDEST PUSH1 0x0 PUSH1 0x20 DUP3 ADD SWAP1 POP DUP2 DUP2 SUB PUSH1 0x0 DUP4 ADD MSTORE PUSH2 0x1A85 DUP2 DUP5 PUSH2 0x1A32 JUMP JUMPDEST SWAP1 POP SWAP3 SWAP2 POP POP JUMP INVALID LOG2 PUSH5 0x6970667358 0x22 SLT KECCAK256 DUP15 0xBF SIGNEXTEND 0xE5 PUSH7 0xF0F07D75835672 JUMPDEST PUSH28 0x8E6963ECB2058786FCC6923F9894D85BF10564736F6C634300080900 CALLER "
        },
        "methodIdentifiers": {
          "initialize()": "8129fc1c",
          "owner()": "8da5cb5b",
          "renounceOwnership()": "715018a6",
          "swap(address,address,uint256)": "df791e50",
          "tokenRate(address,address)": "2c798a6c",
          "transferOwnership(address)": "f2fde38b"
        }
      },
      "storageLayout": {
        "storage": [
          {
            "astId": 130,
            "contract": "contracts/SwapTokenV2.sol:SwapTokenV2",
            "label": "_initialized",
            "offset": 0,
            "slot": "0",
            "type": "t_bool"
          },
          {
            "astId": 133,
            "contract": "contracts/SwapTokenV2.sol:SwapTokenV2",
            "label": "_initializing",
            "offset": 1,
            "slot": "0",
            "type": "t_bool"
          },
          {
            "astId": 783,
            "contract": "contracts/SwapTokenV2.sol:SwapTokenV2",
            "label": "__gap",
            "offset": 0,
            "slot": "1",
            "type": "t_array(t_uint256)50_storage"
          },
          {
            "astId": 10,
            "contract": "contracts/SwapTokenV2.sol:SwapTokenV2",
            "label": "_owner",
            "offset": 0,
            "slot": "51",
            "type": "t_address"
          },
          {
            "astId": 122,
            "contract": "contracts/SwapTokenV2.sol:SwapTokenV2",
            "label": "__gap",
            "offset": 0,
            "slot": "52",
            "type": "t_array(t_uint256)49_storage"
          },
          {
            "astId": 807,
            "contract": "contracts/SwapTokenV2.sol:SwapTokenV2",
            "label": "tokenRate",
            "offset": 0,
            "slot": "101",
            "type": "t_mapping(t_address,t_mapping(t_address,t_struct(Rate)800_storage))"
          }
        ],
        "types": {
          "t_address": {
            "encoding": "inplace",
            "label": "address",
            "numberOfBytes": "20"
          },
          "t_array(t_uint256)49_storage": {
            "base": "t_uint256",
            "encoding": "inplace",
            "label": "uint256[49]",
            "numberOfBytes": "1568"
          },
          "t_array(t_uint256)50_storage": {
            "base": "t_uint256",
            "encoding": "inplace",
            "label": "uint256[50]",
            "numberOfBytes": "1600"
          },
          "t_bool": {
            "encoding": "inplace",
            "label": "bool",
            "numberOfBytes": "1"
          },
          "t_mapping(t_address,t_mapping(t_address,t_struct(Rate)800_storage))": {
            "encoding": "mapping",
            "key": "t_address",
            "label": "mapping(address => mapping(address => struct SwapTokenV2.Rate))",
            "numberOfBytes": "32",
            "value": "t_mapping(t_address,t_struct(Rate)800_storage)"
          },
          "t_mapping(t_address,t_struct(Rate)800_storage)": {
            "encoding": "mapping",
            "key": "t_address",
            "label": "mapping(address => struct SwapTokenV2.Rate)",
            "numberOfBytes": "32",
            "value": "t_struct(Rate)800_storage"
          },
          "t_struct(Rate)800_storage": {
            "encoding": "inplace",
            "label": "struct SwapTokenV2.Rate",
            "members": [
              {
                "astId": 797,
                "contract": "contracts/SwapTokenV2.sol:SwapTokenV2",
                "label": "rate",
                "offset": 0,
                "slot": "0",
                "type": "t_uint256"
              },
              {
                "astId": 799,
                "contract": "contracts/SwapTokenV2.sol:SwapTokenV2",
                "label": "decimals",
                "offset": 0,
                "slot": "1",
                "type": "t_uint32"
              }
            ],
            "numberOfBytes": "64"
          },
          "t_uint256": {
            "encoding": "inplace",
            "label": "uint256",
            "numberOfBytes": "32"
          },
          "t_uint32": {
            "encoding": "inplace",
            "label": "uint32",
            "numberOfBytes": "4"
          }
        }
      }
    }
  }
}