{
  "_format": "hh-sol-artifact-1",
  "contractName": "PoolFactory",
  "sourceName": "contracts/PoolFactory.sol",
  "abi": [
    {
      "anonymous": false,
      "inputs": [
        {
          "indexed": false,
          "internalType": "address",
          "name": "swapContractAddress",
          "type": "address"
        },
        {
          "indexed": false,
          "internalType": "address",
          "name": "contractOwner",
          "type": "address"
        },
        {
          "indexed": false,
          "internalType": "address",
          "name": "token1Address",
          "type": "address"
        },
        {
          "indexed": false,
          "internalType": "address",
          "name": "token2Address",
          "type": "address"
        }
      ],
      "name": "SwapContractCreate",
      "type": "event"
    },
    {
      "inputs": [
        {
          "internalType": "uint256",
          "name": "_pool_id",
          "type": "uint256"
        },
        {
          "internalType": "address",
          "name": "_tokenAAddress",
          "type": "address"
        },
        {
          "internalType": "string",
          "name": "_tokenAName",
          "type": "string"
        },
        {
          "internalType": "string",
          "name": "_tokenASymbol",
          "type": "string"
        },
        {
          "internalType": "address",
          "name": "_tokenBAddress",
          "type": "address"
        },
        {
          "internalType": "string",
          "name": "_tokenBName",
          "type": "string"
        },
        {
          "internalType": "string",
          "name": "_tokenBSymbol",
          "type": "string"
        }
      ],
      "name": "createPool",
      "outputs": [
        {
          "internalType": "address",
          "name": "",
          "type": "address"
        }
      ],
      "stateMutability": "nonpayable",
      "type": "function"
    },
    {
      "inputs": [],
      "name": "getPoolOwner",
      "outputs": [
        {
          "internalType": "address[]",
          "name": "",
          "type": "address[]"
        }
      ],
      "stateMutability": "view",
      "type": "function"
    },
    {
      "inputs": [],
      "name": "initializable",
      "outputs": [],
      "stateMutability": "nonpayable",
      "type": "function"
    }
  ],
  "bytecode": "0x608060405234801561001057600080fd5b50613dc2806100206000396000f3fe608060405234801561001057600080fd5b50600436106100415760003560e01c80630dc7ce6d14610046578063329d96221461007657806378c5353314610080575b600080fd5b610060600480360381019061005b919061065a565b61009e565b60405161006d919061077b565b60405180910390f35b61007e610343565b005b610088610394565b6040516100959190610854565b60405180910390f35b60003273ffffffffffffffffffffffffffffffffffffffff163373ffffffffffffffffffffffffffffffffffffffff161461010e576040517f08c379a0000000000000000000000000000000000000000000000000000000008152600401610105906108f9565b60405180910390fd5b600080604051806020016101219061045f565b6020820181038252601f19601f8201166040525090506000338b426001805490508d8b60405160200161015996959493929190610982565b604051602081830303815290604052805190602001209050808251602084016000f592508273ffffffffffffffffffffffffffffffffffffffff1663a0a1936b8b8b8b8b8b8b6040518763ffffffff1660e01b81526004016101c096959493929190610a69565b600060405180830381600087803b1580156101da57600080fd5b505af11580156101ee573d6000803e3d6000fd5b505050506001839080600181540180825580915050600190039060005260206000200160009091909190916101000a81548173ffffffffffffffffffffffffffffffffffffffff021916908373ffffffffffffffffffffffffffffffffffffffff160217905550600260003373ffffffffffffffffffffffffffffffffffffffff1673ffffffffffffffffffffffffffffffffffffffff168152602001908152602001600020839080600181540180825580915050600190039060005260206000200160009091909190916101000a81548173ffffffffffffffffffffffffffffffffffffffff021916908373ffffffffffffffffffffffffffffffffffffffff1602179055507f3ae784adca9e4de5b1cbd8727c43dad65ad754ec6934ce55febf5d149249885383338c8a60405161032a9493929190610b45565b60405180910390a1829350505050979650505050505050565b600060019054906101000a900460ff16610392576040517f08c379a000000000000000000000000000000000000000000000000000000000815260040161038990610bfc565b60405180910390fd5b565b6060600260003373ffffffffffffffffffffffffffffffffffffffff1673ffffffffffffffffffffffffffffffffffffffff16815260200190815260200160002080548060200260200160405190810160405280929190818152602001828054801561045557602002820191906000526020600020905b8160009054906101000a900473ffffffffffffffffffffffffffffffffffffffff1673ffffffffffffffffffffffffffffffffffffffff168152602001906001019080831161040b575b5050505050905090565b61317080610c1d83390190565b6000604051905090565b600080fd5b600080fd5b6000819050919050565b61049381610480565b811461049e57600080fd5b50565b6000813590506104b08161048a565b92915050565b600073ffffffffffffffffffffffffffffffffffffffff82169050919050565b60006104e1826104b6565b9050919050565b6104f1816104d6565b81146104fc57600080fd5b50565b60008135905061050e816104e8565b92915050565b600080fd5b600080fd5b6000601f19601f8301169050919050565b7f4e487b7100000000000000000000000000000000000000000000000000000000600052604160045260246000fd5b6105678261051e565b810181811067ffffffffffffffff821117156105865761058561052f565b5b80604052505050565b600061059961046c565b90506105a5828261055e565b919050565b600067ffffffffffffffff8211156105c5576105c461052f565b5b6105ce8261051e565b9050602081019050919050565b82818337600083830152505050565b60006105fd6105f8846105aa565b61058f565b90508281526020810184848401111561061957610618610519565b5b6106248482856105db565b509392505050565b600082601f83011261064157610640610514565b5b81356106518482602086016105ea565b91505092915050565b600080600080600080600060e0888a03121561067957610678610476565b5b60006106878a828b016104a1565b97505060206106988a828b016104ff565b965050604088013567ffffffffffffffff8111156106b9576106b861047b565b5b6106c58a828b0161062c565b955050606088013567ffffffffffffffff8111156106e6576106e561047b565b5b6106f28a828b0161062c565b94505060806107038a828b016104ff565b93505060a088013567ffffffffffffffff8111156107245761072361047b565b5b6107308a828b0161062c565b92505060c088013567ffffffffffffffff8111156107515761075061047b565b5b61075d8a828b0161062c565b91505092959891949750929550565b610775816104d6565b82525050565b6000602082019050610790600083018461076c565b92915050565b600081519050919050565b600082825260208201905092915050565b6000819050602082019050919050565b6107cb816104d6565b82525050565b60006107dd83836107c2565b60208301905092915050565b6000602082019050919050565b600061080182610796565b61080b81856107a1565b9350610816836107b2565b8060005b8381101561084757815161082e88826107d1565b9750610839836107e9565b92505060018101905061081a565b5085935050505092915050565b6000602082019050818103600083015261086e81846107f6565b905092915050565b600082825260208201905092915050565b7f43616e6e6f742063726561746520706f6f6c2066726f6d20736d61727420636f60008201527f6e74726163740000000000000000000000000000000000000000000000000000602082015250565b60006108e3602683610876565b91506108ee82610887565b604082019050919050565b60006020820190508181036000830152610912816108d6565b9050919050565b60008160601b9050919050565b600061093182610919565b9050919050565b600061094382610926565b9050919050565b61095b610956826104d6565b610938565b82525050565b6000819050919050565b61097c61097782610480565b610961565b82525050565b600061098e828961094a565b60148201915061099e828861096b565b6020820191506109ae828761096b565b6020820191506109be828661096b565b6020820191506109ce828561094a565b6014820191506109de828461094a565b601482019150819050979650505050505050565b600081519050919050565b60005b83811015610a1b578082015181840152602081019050610a00565b83811115610a2a576000848401525b50505050565b6000610a3b826109f2565b610a458185610876565b9350610a558185602086016109fd565b610a5e8161051e565b840191505092915050565b600060c082019050610a7e600083018961076c565b8181036020830152610a908188610a30565b90508181036040830152610aa48187610a30565b9050610ab3606083018661076c565b8181036080830152610ac58185610a30565b905081810360a0830152610ad98184610a30565b9050979650505050505050565b6000819050919050565b6000610b0b610b06610b01846104b6565b610ae6565b6104b6565b9050919050565b6000610b1d82610af0565b9050919050565b6000610b2f82610b12565b9050919050565b610b3f81610b24565b82525050565b6000608082019050610b5a6000830187610b36565b610b67602083018661076c565b610b74604083018561076c565b610b81606083018461076c565b95945050505050565b7f496e697469616c697a61626c653a20636f6e7472616374206973206e6f74206960008201527f6e697469616c697a696e67000000000000000000000000000000000000000000602082015250565b6000610be6602b83610876565b9150610bf182610b8a565b604082019050919050565b60006020820190508181036000830152610c1581610bd9565b905091905056fe608060405234801561001057600080fd5b50613150806100206000396000f3fe60806040526004361061008a5760003560e01c8063715018a611610059578063715018a6146101595780638da5cb5b14610170578063a0a1936b1461019b578063df791e50146101c4578063f2fde38b146101e057610091565b806316452e88146100965780632c798a6c146100bf57806347e7ef24146100fd5780635768adcf1461011957610091565b3661009157005b600080fd5b3480156100a257600080fd5b506100bd60048036038101906100b89190611e75565b610209565b005b3480156100cb57600080fd5b506100e660048036038101906100e19190611edc565b61042d565b6040516100f4929190611f3a565b60405180910390f35b61011760048036038101906101129190611f63565b61046e565b005b34801561012557600080fd5b50610140600480360381019061013b9190611fa3565b610625565b6040516101509493929190612078565b60405180910390f35b34801561016557600080fd5b5061016e610785565b005b34801561017c57600080fd5b5061018561080d565b60405161019291906120cb565b60405180910390f35b3480156101a757600080fd5b506101c260048036038101906101bd919061221b565b610837565b005b6101de60048036038101906101d99190612318565b610ca3565b005b3480156101ec57600080fd5b5061020760048036038101906102029190611fa3565b611134565b005b61021161122c565b73ffffffffffffffffffffffffffffffffffffffff1661022f61080d565b73ffffffffffffffffffffffffffffffffffffffff1614610285576040517f08c379a000000000000000000000000000000000000000000000000000000000815260040161027c906123b7565b60405180910390fd5b600082116102c8576040517f08c379a00000000000000000000000000000000000000000000000000000000081526004016102bf90612449565b60405180910390fd5b81606e60008673ffffffffffffffffffffffffffffffffffffffff1673ffffffffffffffffffffffffffffffffffffffff16815260200190815260200160002060008573ffffffffffffffffffffffffffffffffffffffff1673ffffffffffffffffffffffffffffffffffffffff1681526020019081526020016000206000018190555080606e60008673ffffffffffffffffffffffffffffffffffffffff1673ffffffffffffffffffffffffffffffffffffffff16815260200190815260200160002060008573ffffffffffffffffffffffffffffffffffffffff1673ffffffffffffffffffffffffffffffffffffffff16815260200190815260200160002060010160006101000a81548163ffffffff021916908363ffffffff1602179055507feffe61204a4e71f0d9ac0d001668c9368d39f721d347e00fe5e5f9ef5eb22f9e8484848460405161041f9493929190612469565b60405180910390a150505050565b606e602052816000526040600020602052806000526040600020600091509150508060000154908060010160009054906101000a900463ffffffff16905082565b606660000160009054906101000a900473ffffffffffffffffffffffffffffffffffffffff1673ffffffffffffffffffffffffffffffffffffffff168273ffffffffffffffffffffffffffffffffffffffff16148061051d5750606a60000160009054906101000a900473ffffffffffffffffffffffffffffffffffffffff1673ffffffffffffffffffffffffffffffffffffffff168273ffffffffffffffffffffffffffffffffffffffff16145b61055c576040517f08c379a000000000000000000000000000000000000000000000000000000000815260040161055390612520565b60405180910390fd5b600073ffffffffffffffffffffffffffffffffffffffff168273ffffffffffffffffffffffffffffffffffffffff1614156105db5761059b8282611234565b7fe31c7b8d08ee7db0afa68782e1028ef92305caeea8626633ad44d413e30f6b2f8282336040516105ce93929190612540565b60405180910390a1610621565b6105e582826112cb565b7fe31c7b8d08ee7db0afa68782e1028ef92305caeea8626633ad44d413e30f6b2f82823360405161061893929190612540565b60405180910390a15b5050565b606f6020528060005260406000206000915090508060000160009054906101000a900473ffffffffffffffffffffffffffffffffffffffff1690806001015490806002018054610674906125a6565b80601f01602080910402602001604051908101604052809291908181526020018280546106a0906125a6565b80156106ed5780601f106106c2576101008083540402835291602001916106ed565b820191906000526020600020905b8154815290600101906020018083116106d057829003601f168201915b505050505090806003018054610702906125a6565b80601f016020809104026020016040519081016040528092919081815260200182805461072e906125a6565b801561077b5780601f106107505761010080835404028352916020019161077b565b820191906000526020600020905b81548152906001019060200180831161075e57829003601f168201915b5050505050905084565b61078d61122c565b73ffffffffffffffffffffffffffffffffffffffff166107ab61080d565b73ffffffffffffffffffffffffffffffffffffffff1614610801576040517f08c379a00000000000000000000000000000000000000000000000000000000081526004016107f8906123b7565b60405180910390fd5b61080b6000611394565b565b6000603360009054906101000a900473ffffffffffffffffffffffffffffffffffffffff16905090565b600060019054906101000a900460ff1661085f5760008054906101000a900460ff1615610868565b61086761145a565b5b6108a7576040517f08c379a000000000000000000000000000000000000000000000000000000000815260040161089e9061264a565b60405180910390fd5b60008060019054906101000a900460ff1615905080156108f7576001600060016101000a81548160ff02191690831515021790555060016000806101000a81548160ff0219169083151502179055505b60405180608001604052808873ffffffffffffffffffffffffffffffffffffffff1681526020016000815260200187815260200186815250606660008201518160000160006101000a81548173ffffffffffffffffffffffffffffffffffffffff021916908373ffffffffffffffffffffffffffffffffffffffff16021790555060208201518160010155604082015181600201908051906020019061099e929190611c61565b5060608201518160030190805190602001906109bb929190611c61565b5090505060405180608001604052808573ffffffffffffffffffffffffffffffffffffffff1681526020016000815260200184815260200183815250606a60008201518160000160006101000a81548173ffffffffffffffffffffffffffffffffffffffff021916908373ffffffffffffffffffffffffffffffffffffffff160217905550602082015181600101556040820151816002019080519060200190610a66929190611c61565b506060820151816003019080519060200190610a83929190611c61565b509050506066606f60008973ffffffffffffffffffffffffffffffffffffffff1673ffffffffffffffffffffffffffffffffffffffff1681526020019081526020016000206000820160009054906101000a900473ffffffffffffffffffffffffffffffffffffffff168160000160006101000a81548173ffffffffffffffffffffffffffffffffffffffff021916908373ffffffffffffffffffffffffffffffffffffffff160217905550600182015481600101556002820181600201908054610b4d906125a6565b610b58929190611ce7565b506003820181600301908054610b6d906125a6565b610b78929190611ce7565b50905050606a606f60008673ffffffffffffffffffffffffffffffffffffffff1673ffffffffffffffffffffffffffffffffffffffff1681526020019081526020016000206000820160009054906101000a900473ffffffffffffffffffffffffffffffffffffffff168160000160006101000a81548173ffffffffffffffffffffffffffffffffffffffff021916908373ffffffffffffffffffffffffffffffffffffffff160217905550600182015481600101556002820181600201908054610c42906125a6565b610c4d929190611ce7565b506003820181600301908054610c62906125a6565b610c6d929190611ce7565b50905050610c7961146b565b8015610c9a5760008060016101000a81548160ff0219169083151502179055505b50505050505050565b8173ffffffffffffffffffffffffffffffffffffffff168373ffffffffffffffffffffffffffffffffffffffff161415610d12576040517f08c379a0000000000000000000000000000000000000000000000000000000008152600401610d09906126dc565b60405180910390fd5b6000606e60008573ffffffffffffffffffffffffffffffffffffffff1673ffffffffffffffffffffffffffffffffffffffff16815260200190815260200160002060008473ffffffffffffffffffffffffffffffffffffffff1673ffffffffffffffffffffffffffffffffffffffff1681526020019081526020016000206000015411610dd4576040517f08c379a0000000000000000000000000000000000000000000000000000000008152600401610dcb9061276e565b60405180910390fd5b606660000160009054906101000a900473ffffffffffffffffffffffffffffffffffffffff1673ffffffffffffffffffffffffffffffffffffffff168373ffffffffffffffffffffffffffffffffffffffff161480610e835750606a60000160009054906101000a900473ffffffffffffffffffffffffffffffffffffffff1673ffffffffffffffffffffffffffffffffffffffff168373ffffffffffffffffffffffffffffffffffffffff16145b610ec2576040517f08c379a0000000000000000000000000000000000000000000000000000000008152600401610eb990612520565b60405180910390fd5b606660000160009054906101000a900473ffffffffffffffffffffffffffffffffffffffff1673ffffffffffffffffffffffffffffffffffffffff168273ffffffffffffffffffffffffffffffffffffffff161480610f715750606a60000160009054906101000a900473ffffffffffffffffffffffffffffffffffffffff1673ffffffffffffffffffffffffffffffffffffffff168273ffffffffffffffffffffffffffffffffffffffff16145b610fb0576040517f08c379a0000000000000000000000000000000000000000000000000000000008152600401610fa790612800565b60405180910390fd5b600034905060008073ffffffffffffffffffffffffffffffffffffffff168573ffffffffffffffffffffffffffffffffffffffff1614610fee578291505b606e60008673ffffffffffffffffffffffffffffffffffffffff1673ffffffffffffffffffffffffffffffffffffffff16815260200190815260200160002060008573ffffffffffffffffffffffffffffffffffffffff1673ffffffffffffffffffffffffffffffffffffffff16815260200190815260200160002060010160009054906101000a900463ffffffff16600a61108a9190612982565b606e60008773ffffffffffffffffffffffffffffffffffffffff1673ffffffffffffffffffffffffffffffffffffffff16815260200190815260200160002060008673ffffffffffffffffffffffffffffffffffffffff1673ffffffffffffffffffffffffffffffffffffffff168152602001908152602001600020600001548361111591906129cd565b61111f9190612a56565b905061112d858584846114c4565b5050505050565b61113c61122c565b73ffffffffffffffffffffffffffffffffffffffff1661115a61080d565b73ffffffffffffffffffffffffffffffffffffffff16146111b0576040517f08c379a00000000000000000000000000000000000000000000000000000000081526004016111a7906123b7565b60405180910390fd5b600073ffffffffffffffffffffffffffffffffffffffff168173ffffffffffffffffffffffffffffffffffffffff161415611220576040517f08c379a000000000000000000000000000000000000000000000000000000000815260040161121790612af9565b60405180910390fd5b61122981611394565b50565b600033905090565b606660000160009054906101000a900473ffffffffffffffffffffffffffffffffffffffff1673ffffffffffffffffffffffffffffffffffffffff168273ffffffffffffffffffffffffffffffffffffffff1614156112ac578060666001015461129e9190612b19565b6066600101819055506112c7565b80606a600101546112bd9190612b19565b606a600101819055505b5050565b60008290506112fb30838373ffffffffffffffffffffffffffffffffffffffff166116e89092919063ffffffff16565b606660000160009054906101000a900473ffffffffffffffffffffffffffffffffffffffff1673ffffffffffffffffffffffffffffffffffffffff168373ffffffffffffffffffffffffffffffffffffffff16141561137457816066600101546113659190612b19565b60666001018190555050611390565b81606a600101546113859190612b19565b606a60010181905550505b5050565b6000603360009054906101000a900473ffffffffffffffffffffffffffffffffffffffff16905081603360006101000a81548173ffffffffffffffffffffffffffffffffffffffff021916908373ffffffffffffffffffffffffffffffffffffffff1602179055508173ffffffffffffffffffffffffffffffffffffffff168173ffffffffffffffffffffffffffffffffffffffff167f8be0079c531659141344cd1fd0a4f28419497f9722a3daafe3b4186f6b6457e060405160405180910390a35050565b60006114653061176e565b15905090565b600060019054906101000a900460ff166114ba576040517f08c379a00000000000000000000000000000000000000000000000000000000081526004016114b190612be1565b60405180910390fd5b6114c2611791565b565b60008211611507576040517f08c379a00000000000000000000000000000000000000000000000000000000081526004016114fe90612c73565b60405180910390fd5b80606f60008573ffffffffffffffffffffffffffffffffffffffff1673ffffffffffffffffffffffffffffffffffffffff168152602001908152602001600020600101541161158b576040517f08c379a000000000000000000000000000000000000000000000000000000000815260040161158290612d05565b60405180910390fd5b6115968433846117f2565b6115a183338361185f565b606660000160009054906101000a900473ffffffffffffffffffffffffffffffffffffffff1673ffffffffffffffffffffffffffffffffffffffff168473ffffffffffffffffffffffffffffffffffffffff161415611670578160666001015461160b9190612b19565b60666001018190555080606a600101546116259190612d25565b606a600101819055507ffa2dda1cc1b86e41239702756b13effbc1a092b5c57e3ad320fbe4f3b13fe235848484846040516116639493929190612d59565b60405180910390a16116e2565b81606a600101546116819190612b19565b606a600101819055508060666001015461169b9190612d25565b6066600101819055507ffa2dda1cc1b86e41239702756b13effbc1a092b5c57e3ad320fbe4f3b13fe235848484846040516116d99493929190612d59565b60405180910390a15b50505050565b6117698363a9059cbb60e01b8484604051602401611707929190612d9e565b604051602081830303815290604052907bffffffffffffffffffffffffffffffffffffffffffffffffffffffff19166020820180517bffffffffffffffffffffffffffffffffffffffffffffffffffffffff838183161783525050505061197e565b505050565b6000808273ffffffffffffffffffffffffffffffffffffffff163b119050919050565b600060019054906101000a900460ff166117e0576040517f08c379a00000000000000000000000000000000000000000000000000000000081526004016117d790612be1565b60405180910390fd5b6117f06117eb61122c565b611394565b565b6000839050600073ffffffffffffffffffffffffffffffffffffffff168473ffffffffffffffffffffffffffffffffffffffff1614611859576118588330848473ffffffffffffffffffffffffffffffffffffffff16611a45909392919063ffffffff16565b5b50505050565b6000839050600073ffffffffffffffffffffffffffffffffffffffff168473ffffffffffffffffffffffffffffffffffffffff16141561194c5760008373ffffffffffffffffffffffffffffffffffffffff16836040516118bf90612df8565b60006040518083038185875af1925050503d80600081146118fc576040519150601f19603f3d011682016040523d82523d6000602084013e611901565b606091505b5050905080611945576040517f08c379a000000000000000000000000000000000000000000000000000000000815260040161193c90612e59565b60405180910390fd5b5050611979565b61197783838373ffffffffffffffffffffffffffffffffffffffff166116e89092919063ffffffff16565b505b505050565b60006119e0826040518060400160405280602081526020017f5361666545524332303a206c6f772d6c6576656c2063616c6c206661696c65648152508573ffffffffffffffffffffffffffffffffffffffff16611ace9092919063ffffffff16565b9050600081511115611a405780806020019051810190611a009190612eb1565b611a3f576040517f08c379a0000000000000000000000000000000000000000000000000000000008152600401611a3690612f50565b60405180910390fd5b5b505050565b611ac8846323b872dd60e01b858585604051602401611a6693929190612f70565b604051602081830303815290604052907bffffffffffffffffffffffffffffffffffffffffffffffffffffffff19166020820180517bffffffffffffffffffffffffffffffffffffffffffffffffffffffff838183161783525050505061197e565b50505050565b6060611add8484600085611ae6565b90509392505050565b606082471015611b2b576040517f08c379a0000000000000000000000000000000000000000000000000000000008152600401611b2290613019565b60405180910390fd5b611b348561176e565b611b73576040517f08c379a0000000000000000000000000000000000000000000000000000000008152600401611b6a90613085565b60405180910390fd5b6000808673ffffffffffffffffffffffffffffffffffffffff168587604051611b9c91906130e1565b60006040518083038185875af1925050503d8060008114611bd9576040519150601f19603f3d011682016040523d82523d6000602084013e611bde565b606091505b5091509150611bee828286611bfa565b92505050949350505050565b60608315611c0a57829050611c5a565b600083511115611c1d5782518084602001fd5b816040517f08c379a0000000000000000000000000000000000000000000000000000000008152600401611c5191906130f8565b60405180910390fd5b9392505050565b828054611c6d906125a6565b90600052602060002090601f016020900481019282611c8f5760008555611cd6565b82601f10611ca857805160ff1916838001178555611cd6565b82800160010185558215611cd6579182015b82811115611cd5578251825591602001919060010190611cba565b5b509050611ce39190611d74565b5090565b828054611cf3906125a6565b90600052602060002090601f016020900481019282611d155760008555611d63565b82601f10611d265780548555611d63565b82800160010185558215611d6357600052602060002091601f016020900482015b82811115611d62578254825591600101919060010190611d47565b5b509050611d709190611d74565b5090565b5b80821115611d8d576000816000905550600101611d75565b5090565b6000604051905090565b600080fd5b600080fd5b600073ffffffffffffffffffffffffffffffffffffffff82169050919050565b6000611dd082611da5565b9050919050565b611de081611dc5565b8114611deb57600080fd5b50565b600081359050611dfd81611dd7565b92915050565b6000819050919050565b611e1681611e03565b8114611e2157600080fd5b50565b600081359050611e3381611e0d565b92915050565b600063ffffffff82169050919050565b611e5281611e39565b8114611e5d57600080fd5b50565b600081359050611e6f81611e49565b92915050565b60008060008060808587031215611e8f57611e8e611d9b565b5b6000611e9d87828801611dee565b9450506020611eae87828801611dee565b9350506040611ebf87828801611e24565b9250506060611ed087828801611e60565b91505092959194509250565b60008060408385031215611ef357611ef2611d9b565b5b6000611f0185828601611dee565b9250506020611f1285828601611dee565b9150509250929050565b611f2581611e03565b82525050565b611f3481611e39565b82525050565b6000604082019050611f4f6000830185611f1c565b611f5c6020830184611f2b565b9392505050565b60008060408385031215611f7a57611f79611d9b565b5b6000611f8885828601611dee565b9250506020611f9985828601611e24565b9150509250929050565b600060208284031215611fb957611fb8611d9b565b5b6000611fc784828501611dee565b91505092915050565b611fd981611dc5565b82525050565b600081519050919050565b600082825260208201905092915050565b60005b83811015612019578082015181840152602081019050611ffe565b83811115612028576000848401525b50505050565b6000601f19601f8301169050919050565b600061204a82611fdf565b6120548185611fea565b9350612064818560208601611ffb565b61206d8161202e565b840191505092915050565b600060808201905061208d6000830187611fd0565b61209a6020830186611f1c565b81810360408301526120ac818561203f565b905081810360608301526120c0818461203f565b905095945050505050565b60006020820190506120e06000830184611fd0565b92915050565b600080fd5b600080fd5b7f4e487b7100000000000000000000000000000000000000000000000000000000600052604160045260246000fd5b6121288261202e565b810181811067ffffffffffffffff82111715612147576121466120f0565b5b80604052505050565b600061215a611d91565b9050612166828261211f565b919050565b600067ffffffffffffffff821115612186576121856120f0565b5b61218f8261202e565b9050602081019050919050565b82818337600083830152505050565b60006121be6121b98461216b565b612150565b9050828152602081018484840111156121da576121d96120eb565b5b6121e584828561219c565b509392505050565b600082601f830112612202576122016120e6565b5b81356122128482602086016121ab565b91505092915050565b60008060008060008060c0878903121561223857612237611d9b565b5b600061224689828a01611dee565b965050602087013567ffffffffffffffff81111561226757612266611da0565b5b61227389828a016121ed565b955050604087013567ffffffffffffffff81111561229457612293611da0565b5b6122a089828a016121ed565b94505060606122b189828a01611dee565b935050608087013567ffffffffffffffff8111156122d2576122d1611da0565b5b6122de89828a016121ed565b92505060a087013567ffffffffffffffff8111156122ff576122fe611da0565b5b61230b89828a016121ed565b9150509295509295509295565b60008060006060848603121561233157612330611d9b565b5b600061233f86828701611dee565b935050602061235086828701611dee565b925050604061236186828701611e24565b9150509250925092565b7f4f776e61626c653a2063616c6c6572206973206e6f7420746865206f776e6572600082015250565b60006123a1602083611fea565b91506123ac8261236b565b602082019050919050565b600060208201905081810360008301526123d081612394565b9050919050565b7f5468652072617465206265747765656e20746f6b656e20616e6420637279707460008201527f6f206d7573742062652067726561746572207468616e20300000000000000000602082015250565b6000612433603883611fea565b915061243e826123d7565b604082019050919050565b6000602082019050818103600083015261246281612426565b9050919050565b600060808201905061247e6000830187611fd0565b61248b6020830186611fd0565b6124986040830185611f1c565b6124a56060830184611f2b565b95945050505050565b7f546f6b656e20696e206973206e6f7420617661696c61626c6520696e2074686960008201527f7320706f6f6c0000000000000000000000000000000000000000000000000000602082015250565b600061250a602683611fea565b9150612515826124ae565b604082019050919050565b60006020820190508181036000830152612539816124fd565b9050919050565b60006060820190506125556000830186611fd0565b6125626020830185611f1c565b61256f6040830184611fd0565b949350505050565b7f4e487b7100000000000000000000000000000000000000000000000000000000600052602260045260246000fd5b600060028204905060018216806125be57607f821691505b602082108114156125d2576125d1612577565b5b50919050565b7f496e697469616c697a61626c653a20636f6e747261637420697320616c72656160008201527f647920696e697469616c697a6564000000000000000000000000000000000000602082015250565b6000612634602e83611fea565b915061263f826125d8565b604082019050919050565b6000602082019050818103600083015261266381612627565b9050919050565b7f43616e6e6f74207472616e73666572203220746f6b656e20776974682073616d60008201527f6520616464726573730000000000000000000000000000000000000000000000602082015250565b60006126c6602983611fea565b91506126d18261266a565b604082019050919050565b600060208201905081810360008301526126f5816126b9565b9050919050565b7f5468652072617465206265747765656e2074686973203220746f6b656e73206960008201527f7320756e617661696c61626c6500000000000000000000000000000000000000602082015250565b6000612758602d83611fea565b9150612763826126fc565b604082019050919050565b600060208201905081810360008301526127878161274b565b9050919050565b7f546f6b656e206f7574206973206e6f7420617661696c61626c6520696e20746860008201527f697320706f6f6c00000000000000000000000000000000000000000000000000602082015250565b60006127ea602783611fea565b91506127f58261278e565b604082019050919050565b60006020820190508181036000830152612819816127dd565b9050919050565b7f4e487b7100000000000000000000000000000000000000000000000000000000600052601160045260246000fd5b60008160011c9050919050565b6000808291508390505b60018511156128a65780860481111561288257612881612820565b5b60018516156128915780820291505b808102905061289f8561284f565b9450612866565b94509492505050565b6000826128bf576001905061297b565b816128cd576000905061297b565b81600181146128e357600281146128ed5761291c565b600191505061297b565b60ff8411156128ff576128fe612820565b5b8360020a91508482111561291657612915612820565b5b5061297b565b5060208310610133831016604e8410600b84101617156129515782820a90508381111561294c5761294b612820565b5b61297b565b61295e848484600161285c565b9250905081840481111561297557612974612820565b5b81810290505b9392505050565b600061298d82611e03565b915061299883611e39565b92506129c57fffffffffffffffffffffffffffffffffffffffffffffffffffffffffffffffff84846128af565b905092915050565b60006129d882611e03565b91506129e383611e03565b9250817fffffffffffffffffffffffffffffffffffffffffffffffffffffffffffffffff0483118215151615612a1c57612a1b612820565b5b828202905092915050565b7f4e487b7100000000000000000000000000000000000000000000000000000000600052601260045260246000fd5b6000612a6182611e03565b9150612a6c83611e03565b925082612a7c57612a7b612a27565b5b828204905092915050565b7f4f776e61626c653a206e6577206f776e657220697320746865207a65726f206160008201527f6464726573730000000000000000000000000000000000000000000000000000602082015250565b6000612ae3602683611fea565b9150612aee82612a87565b604082019050919050565b60006020820190508181036000830152612b1281612ad6565b9050919050565b6000612b2482611e03565b9150612b2f83611e03565b9250827fffffffffffffffffffffffffffffffffffffffffffffffffffffffffffffffff03821115612b6457612b63612820565b5b828201905092915050565b7f496e697469616c697a61626c653a20636f6e7472616374206973206e6f74206960008201527f6e697469616c697a696e67000000000000000000000000000000000000000000602082015250565b6000612bcb602b83611fea565b9150612bd682612b6f565b604082019050919050565b60006020820190508181036000830152612bfa81612bbe565b9050919050565b7f43616e6e6f74207377617020746f6b656e20696620746f6b656e20616d6f756e60008201527f7420697320657175616c20746f20300000000000000000000000000000000000602082015250565b6000612c5d602f83611fea565b9150612c6882612c01565b604082019050919050565b60006020820190508181036000830152612c8c81612c50565b9050919050565b7f54686520616d6f756e74206f6620746f6b656e206f7574206d7573742062652060008201527f67726561746572207468616e20706f6f6c2062616c616e636500000000000000602082015250565b6000612cef603983611fea565b9150612cfa82612c93565b604082019050919050565b60006020820190508181036000830152612d1e81612ce2565b9050919050565b6000612d3082611e03565b9150612d3b83611e03565b925082821015612d4e57612d4d612820565b5b828203905092915050565b6000608082019050612d6e6000830187611fd0565b612d7b6020830186611fd0565b612d886040830185611f1c565b612d956060830184611f1c565b95945050505050565b6000604082019050612db36000830185611fd0565b612dc06020830184611f1c565b9392505050565b600081905092915050565b50565b6000612de2600083612dc7565b9150612ded82612dd2565b600082019050919050565b6000612e0382612dd5565b9150819050919050565b7f5472616e7366657220746f6b656e206661696c65640000000000000000000000600082015250565b6000612e43601583611fea565b9150612e4e82612e0d565b602082019050919050565b60006020820190508181036000830152612e7281612e36565b9050919050565b60008115159050919050565b612e8e81612e79565b8114612e9957600080fd5b50565b600081519050612eab81612e85565b92915050565b600060208284031215612ec757612ec6611d9b565b5b6000612ed584828501612e9c565b91505092915050565b7f5361666545524332303a204552433230206f7065726174696f6e20646964206e60008201527f6f74207375636365656400000000000000000000000000000000000000000000602082015250565b6000612f3a602a83611fea565b9150612f4582612ede565b604082019050919050565b60006020820190508181036000830152612f6981612f2d565b9050919050565b6000606082019050612f856000830186611fd0565b612f926020830185611fd0565b612f9f6040830184611f1c565b949350505050565b7f416464726573733a20696e73756666696369656e742062616c616e636520666f60008201527f722063616c6c0000000000000000000000000000000000000000000000000000602082015250565b6000613003602683611fea565b915061300e82612fa7565b604082019050919050565b6000602082019050818103600083015261303281612ff6565b9050919050565b7f416464726573733a2063616c6c20746f206e6f6e2d636f6e7472616374000000600082015250565b600061306f601d83611fea565b915061307a82613039565b602082019050919050565b6000602082019050818103600083015261309e81613062565b9050919050565b600081519050919050565b60006130bb826130a5565b6130c58185612dc7565b93506130d5818560208601611ffb565b80840191505092915050565b60006130ed82846130b0565b915081905092915050565b60006020820190508181036000830152613112818461203f565b90509291505056fea2646970667358221220068cf87979d3744bcb446c2e319b40bb60e5d2c580ef5383652bed453b06fb5164736f6c63430008090033a2646970667358221220360041a84783a73af9a166cf4ccea37b3add0f9824cd37b99ac5ba9ba9157fbf64736f6c63430008090033",
  "linkReferences": {},
  "deployedLinkReferences": {}
}