{
  "_format": "hh-sol-artifact-1",
  "contractName": "SwapTokenV2",
  "sourceName": "contracts/SwapTokenV2.sol",
  "abi": [
    {
      "anonymous": false,
      "inputs": [
        {
          "indexed": true,
          "internalType": "address",
          "name": "previousOwner",
          "type": "address"
        },
        {
          "indexed": true,
          "internalType": "address",
          "name": "newOwner",
          "type": "address"
        }
      ],
      "name": "OwnershipTransferred",
      "type": "event"
    },
    {
      "anonymous": false,
      "inputs": [
        {
          "indexed": false,
          "internalType": "address",
          "name": "tokenIn",
          "type": "address"
        },
        {
          "indexed": false,
          "internalType": "address",
          "name": "tokenOut",
          "type": "address"
        },
        {
          "indexed": false,
          "internalType": "uint256",
          "name": "_newRate",
          "type": "uint256"
        },
        {
          "indexed": false,
          "internalType": "uint32",
          "name": "newRateDecimals",
          "type": "uint32"
        }
      ],
      "name": "RateChange",
      "type": "event"
    },
    {
      "anonymous": false,
      "inputs": [
        {
          "indexed": false,
          "internalType": "address",
          "name": "_tokenIn",
          "type": "address"
        },
        {
          "indexed": false,
          "internalType": "address",
          "name": "_tokenOut",
          "type": "address"
        },
        {
          "indexed": false,
          "internalType": "uint256",
          "name": "_amountIn",
          "type": "uint256"
        },
        {
          "indexed": false,
          "internalType": "uint256",
          "name": "_amountOut",
          "type": "uint256"
        }
      ],
      "name": "Swap",
      "type": "event"
    },
    {
      "inputs": [],
      "name": "initialize",
      "outputs": [],
      "stateMutability": "nonpayable",
      "type": "function"
    },
    {
      "inputs": [],
      "name": "owner",
      "outputs": [
        {
          "internalType": "address",
          "name": "",
          "type": "address"
        }
      ],
      "stateMutability": "view",
      "type": "function"
    },
    {
      "inputs": [],
      "name": "renounceOwnership",
      "outputs": [],
      "stateMutability": "nonpayable",
      "type": "function"
    },
    {
      "inputs": [
        {
          "internalType": "address",
          "name": "_tokenIn",
          "type": "address"
        },
        {
          "internalType": "address",
          "name": "_tokenOut",
          "type": "address"
        },
        {
          "internalType": "uint256",
          "name": "_amountIn",
          "type": "uint256"
        }
      ],
      "name": "swap",
      "outputs": [],
      "stateMutability": "payable",
      "type": "function"
    },
    {
      "inputs": [
        {
          "internalType": "address",
          "name": "",
          "type": "address"
        },
        {
          "internalType": "address",
          "name": "",
          "type": "address"
        }
      ],
      "name": "tokenRate",
      "outputs": [
        {
          "internalType": "uint256",
          "name": "rate",
          "type": "uint256"
        },
        {
          "internalType": "uint32",
          "name": "decimals",
          "type": "uint32"
        }
      ],
      "stateMutability": "view",
      "type": "function"
    },
    {
      "inputs": [
        {
          "internalType": "address",
          "name": "newOwner",
          "type": "address"
        }
      ],
      "name": "transferOwnership",
      "outputs": [],
      "stateMutability": "nonpayable",
      "type": "function"
    },
    {
      "stateMutability": "payable",
      "type": "receive"
    }
  ],
  "bytecode": "0x608060405234801561001057600080fd5b50611ac3806100206000396000f3fe6080604052600436106100595760003560e01c80632c798a6c14610065578063715018a6146100a35780638129fc1c146100ba5780638da5cb5b146100d1578063df791e50146100fc578063f2fde38b1461011857610060565b3661006057005b600080fd5b34801561007157600080fd5b5061008c60048036038101906100879190610e7d565b610141565b60405161009a929190610ef5565b60405180910390f35b3480156100af57600080fd5b506100b8610182565b005b3480156100c657600080fd5b506100cf61020a565b005b3480156100dd57600080fd5b506100e66102f6565b6040516100f39190610f2d565b60405180910390f35b61011660048036038101906101119190610f74565b610320565b005b34801561012457600080fd5b5061013f600480360381019061013a9190610fc7565b6105d5565b005b6065602052816000526040600020602052806000526040600020600091509150508060000154908060010160009054906101000a900463ffffffff16905082565b61018a6106cd565b73ffffffffffffffffffffffffffffffffffffffff166101a86102f6565b73ffffffffffffffffffffffffffffffffffffffff16146101fe576040517f08c379a00000000000000000000000000000000000000000000000000000000081526004016101f590611051565b60405180910390fd5b61020860006106d5565b565b600060019054906101000a900460ff166102325760008054906101000a900460ff161561023b565b61023a61079b565b5b61027a576040517f08c379a0000000000000000000000000000000000000000000000000000000008152600401610271906110e3565b60405180910390fd5b60008060019054906101000a900460ff1615905080156102ca576001600060016101000a81548160ff02191690831515021790555060016000806101000a81548160ff0219169083151502179055505b6102d26107ac565b80156102f35760008060016101000a81548160ff0219169083151502179055505b50565b6000603360009054906101000a900473ffffffffffffffffffffffffffffffffffffffff16905090565b8173ffffffffffffffffffffffffffffffffffffffff168373ffffffffffffffffffffffffffffffffffffffff16141561038f576040517f08c379a000000000000000000000000000000000000000000000000000000000815260040161038690611175565b60405180910390fd5b6000606560008573ffffffffffffffffffffffffffffffffffffffff1673ffffffffffffffffffffffffffffffffffffffff16815260200190815260200160002060008473ffffffffffffffffffffffffffffffffffffffff1673ffffffffffffffffffffffffffffffffffffffff1681526020019081526020016000206000015411610451576040517f08c379a000000000000000000000000000000000000000000000000000000000815260040161044890611207565b60405180910390fd5b600034905060008073ffffffffffffffffffffffffffffffffffffffff168573ffffffffffffffffffffffffffffffffffffffff161461048f578291505b606560008673ffffffffffffffffffffffffffffffffffffffff1673ffffffffffffffffffffffffffffffffffffffff16815260200190815260200160002060008573ffffffffffffffffffffffffffffffffffffffff1673ffffffffffffffffffffffffffffffffffffffff16815260200190815260200160002060010160009054906101000a900463ffffffff16600a61052b9190611389565b606560008773ffffffffffffffffffffffffffffffffffffffff1673ffffffffffffffffffffffffffffffffffffffff16815260200190815260200160002060008673ffffffffffffffffffffffffffffffffffffffff1673ffffffffffffffffffffffffffffffffffffffff16815260200190815260200160002060000154836105b691906113d4565b6105c0919061145d565b90506105ce85858484610805565b5050505050565b6105dd6106cd565b73ffffffffffffffffffffffffffffffffffffffff166105fb6102f6565b73ffffffffffffffffffffffffffffffffffffffff1614610651576040517f08c379a000000000000000000000000000000000000000000000000000000000815260040161064890611051565b60405180910390fd5b600073ffffffffffffffffffffffffffffffffffffffff168173ffffffffffffffffffffffffffffffffffffffff1614156106c1576040517f08c379a00000000000000000000000000000000000000000000000000000000081526004016106b890611500565b60405180910390fd5b6106ca816106d5565b50565b600033905090565b6000603360009054906101000a900473ffffffffffffffffffffffffffffffffffffffff16905081603360006101000a81548173ffffffffffffffffffffffffffffffffffffffff021916908373ffffffffffffffffffffffffffffffffffffffff1602179055508173ffffffffffffffffffffffffffffffffffffffff168173ffffffffffffffffffffffffffffffffffffffff167f8be0079c531659141344cd1fd0a4f28419497f9722a3daafe3b4186f6b6457e060405160405180910390a35050565b60006107a6306108a1565b15905090565b600060019054906101000a900460ff166107fb576040517f08c379a00000000000000000000000000000000000000000000000000000000081526004016107f290611592565b60405180910390fd5b6108036108c4565b565b60008211610848576040517f08c379a000000000000000000000000000000000000000000000000000000000815260040161083f90611624565b60405180910390fd5b610853843384610925565b61085e833383610992565b7ffa2dda1cc1b86e41239702756b13effbc1a092b5c57e3ad320fbe4f3b13fe235848484846040516108939493929190611644565b60405180910390a150505050565b6000808273ffffffffffffffffffffffffffffffffffffffff163b119050919050565b600060019054906101000a900460ff16610913576040517f08c379a000000000000000000000000000000000000000000000000000000000815260040161090a90611592565b60405180910390fd5b61092361091e6106cd565b6106d5565b565b6000839050600073ffffffffffffffffffffffffffffffffffffffff168473ffffffffffffffffffffffffffffffffffffffff161461098c5761098b8330848473ffffffffffffffffffffffffffffffffffffffff16610ab1909392919063ffffffff16565b5b50505050565b6000839050600073ffffffffffffffffffffffffffffffffffffffff168473ffffffffffffffffffffffffffffffffffffffff161415610a7f5760008373ffffffffffffffffffffffffffffffffffffffff16836040516109f2906116ba565b60006040518083038185875af1925050503d8060008114610a2f576040519150601f19603f3d011682016040523d82523d6000602084013e610a34565b606091505b5050905080610a78576040517f08c379a0000000000000000000000000000000000000000000000000000000008152600401610a6f9061171b565b60405180910390fd5b5050610aac565b610aaa83838373ffffffffffffffffffffffffffffffffffffffff16610b3a9092919063ffffffff16565b505b505050565b610b34846323b872dd60e01b858585604051602401610ad29392919061173b565b604051602081830303815290604052907bffffffffffffffffffffffffffffffffffffffffffffffffffffffff19166020820180517bffffffffffffffffffffffffffffffffffffffffffffffffffffffff8381831617835250505050610bc0565b50505050565b610bbb8363a9059cbb60e01b8484604051602401610b59929190611772565b604051602081830303815290604052907bffffffffffffffffffffffffffffffffffffffffffffffffffffffff19166020820180517bffffffffffffffffffffffffffffffffffffffffffffffffffffffff8381831617835250505050610bc0565b505050565b6000610c22826040518060400160405280602081526020017f5361666545524332303a206c6f772d6c6576656c2063616c6c206661696c65648152508573ffffffffffffffffffffffffffffffffffffffff16610c879092919063ffffffff16565b9050600081511115610c825780806020019051810190610c4291906117d3565b610c81576040517f08c379a0000000000000000000000000000000000000000000000000000000008152600401610c7890611872565b60405180910390fd5b5b505050565b6060610c968484600085610c9f565b90509392505050565b606082471015610ce4576040517f08c379a0000000000000000000000000000000000000000000000000000000008152600401610cdb90611904565b60405180910390fd5b610ced856108a1565b610d2c576040517f08c379a0000000000000000000000000000000000000000000000000000000008152600401610d2390611970565b60405180910390fd5b6000808673ffffffffffffffffffffffffffffffffffffffff168587604051610d5591906119ff565b60006040518083038185875af1925050503d8060008114610d92576040519150601f19603f3d011682016040523d82523d6000602084013e610d97565b606091505b5091509150610da7828286610db3565b92505050949350505050565b60608315610dc357829050610e13565b600083511115610dd65782518084602001fd5b816040517f08c379a0000000000000000000000000000000000000000000000000000000008152600401610e0a9190611a6b565b60405180910390fd5b9392505050565b600080fd5b600073ffffffffffffffffffffffffffffffffffffffff82169050919050565b6000610e4a82610e1f565b9050919050565b610e5a81610e3f565b8114610e6557600080fd5b50565b600081359050610e7781610e51565b92915050565b60008060408385031215610e9457610e93610e1a565b5b6000610ea285828601610e68565b9250506020610eb385828601610e68565b9150509250929050565b6000819050919050565b610ed081610ebd565b82525050565b600063ffffffff82169050919050565b610eef81610ed6565b82525050565b6000604082019050610f0a6000830185610ec7565b610f176020830184610ee6565b9392505050565b610f2781610e3f565b82525050565b6000602082019050610f426000830184610f1e565b92915050565b610f5181610ebd565b8114610f5c57600080fd5b50565b600081359050610f6e81610f48565b92915050565b600080600060608486031215610f8d57610f8c610e1a565b5b6000610f9b86828701610e68565b9350506020610fac86828701610e68565b9250506040610fbd86828701610f5f565b9150509250925092565b600060208284031215610fdd57610fdc610e1a565b5b6000610feb84828501610e68565b91505092915050565b600082825260208201905092915050565b7f4f776e61626c653a2063616c6c6572206973206e6f7420746865206f776e6572600082015250565b600061103b602083610ff4565b915061104682611005565b602082019050919050565b6000602082019050818103600083015261106a8161102e565b9050919050565b7f496e697469616c697a61626c653a20636f6e747261637420697320616c72656160008201527f647920696e697469616c697a6564000000000000000000000000000000000000602082015250565b60006110cd602e83610ff4565b91506110d882611071565b604082019050919050565b600060208201905081810360008301526110fc816110c0565b9050919050565b7f43616e6e6f74207472616e73666572203220746f6b656e20776974682073616d60008201527f6520616464726573730000000000000000000000000000000000000000000000602082015250565b600061115f602983610ff4565b915061116a82611103565b604082019050919050565b6000602082019050818103600083015261118e81611152565b9050919050565b7f5468652072617465206265747765656e2074686973203220746f6b656e73206960008201527f7320756e617661696c61626c6500000000000000000000000000000000000000602082015250565b60006111f1602d83610ff4565b91506111fc82611195565b604082019050919050565b60006020820190508181036000830152611220816111e4565b9050919050565b7f4e487b7100000000000000000000000000000000000000000000000000000000600052601160045260246000fd5b60008160011c9050919050565b6000808291508390505b60018511156112ad5780860481111561128957611288611227565b5b60018516156112985780820291505b80810290506112a685611256565b945061126d565b94509492505050565b6000826112c65760019050611382565b816112d45760009050611382565b81600181146112ea57600281146112f457611323565b6001915050611382565b60ff84111561130657611305611227565b5b8360020a91508482111561131d5761131c611227565b5b50611382565b5060208310610133831016604e8410600b84101617156113585782820a90508381111561135357611352611227565b5b611382565b6113658484846001611263565b9250905081840481111561137c5761137b611227565b5b81810290505b9392505050565b600061139482610ebd565b915061139f83610ed6565b92506113cc7fffffffffffffffffffffffffffffffffffffffffffffffffffffffffffffffff84846112b6565b905092915050565b60006113df82610ebd565b91506113ea83610ebd565b9250817fffffffffffffffffffffffffffffffffffffffffffffffffffffffffffffffff048311821515161561142357611422611227565b5b828202905092915050565b7f4e487b7100000000000000000000000000000000000000000000000000000000600052601260045260246000fd5b600061146882610ebd565b915061147383610ebd565b9250826114835761148261142e565b5b828204905092915050565b7f4f776e61626c653a206e6577206f776e657220697320746865207a65726f206160008201527f6464726573730000000000000000000000000000000000000000000000000000602082015250565b60006114ea602683610ff4565b91506114f58261148e565b604082019050919050565b60006020820190508181036000830152611519816114dd565b9050919050565b7f496e697469616c697a61626c653a20636f6e7472616374206973206e6f74206960008201527f6e697469616c697a696e67000000000000000000000000000000000000000000602082015250565b600061157c602b83610ff4565b915061158782611520565b604082019050919050565b600060208201905081810360008301526115ab8161156f565b9050919050565b7f43616e6e6f74207377617020746f6b656e20696620746f6b656e20616d6f756e60008201527f7420697320657175616c20746f20300000000000000000000000000000000000602082015250565b600061160e602f83610ff4565b9150611619826115b2565b604082019050919050565b6000602082019050818103600083015261163d81611601565b9050919050565b60006080820190506116596000830187610f1e565b6116666020830186610f1e565b6116736040830185610ec7565b6116806060830184610ec7565b95945050505050565b600081905092915050565b50565b60006116a4600083611689565b91506116af82611694565b600082019050919050565b60006116c582611697565b9150819050919050565b7f5472616e7366657220746f6b656e206661696c65640000000000000000000000600082015250565b6000611705601583610ff4565b9150611710826116cf565b602082019050919050565b60006020820190508181036000830152611734816116f8565b9050919050565b60006060820190506117506000830186610f1e565b61175d6020830185610f1e565b61176a6040830184610ec7565b949350505050565b60006040820190506117876000830185610f1e565b6117946020830184610ec7565b9392505050565b60008115159050919050565b6117b08161179b565b81146117bb57600080fd5b50565b6000815190506117cd816117a7565b92915050565b6000602082840312156117e9576117e8610e1a565b5b60006117f7848285016117be565b91505092915050565b7f5361666545524332303a204552433230206f7065726174696f6e20646964206e60008201527f6f74207375636365656400000000000000000000000000000000000000000000602082015250565b600061185c602a83610ff4565b915061186782611800565b604082019050919050565b6000602082019050818103600083015261188b8161184f565b9050919050565b7f416464726573733a20696e73756666696369656e742062616c616e636520666f60008201527f722063616c6c0000000000000000000000000000000000000000000000000000602082015250565b60006118ee602683610ff4565b91506118f982611892565b604082019050919050565b6000602082019050818103600083015261191d816118e1565b9050919050565b7f416464726573733a2063616c6c20746f206e6f6e2d636f6e7472616374000000600082015250565b600061195a601d83610ff4565b915061196582611924565b602082019050919050565b600060208201905081810360008301526119898161194d565b9050919050565b600081519050919050565b60005b838110156119b957808201518184015260208101905061199e565b838111156119c8576000848401525b50505050565b60006119d982611990565b6119e38185611689565b93506119f381856020860161199b565b80840191505092915050565b6000611a0b82846119ce565b915081905092915050565b600081519050919050565b6000601f19601f8301169050919050565b6000611a3d82611a16565b611a478185610ff4565b9350611a5781856020860161199b565b611a6081611a21565b840191505092915050565b60006020820190508181036000830152611a858184611a32565b90509291505056fea26469706673582212208ebf0be566f0f07d758356725b7b8e6963ecb2058786fcc6923f9894d85bf10564736f6c63430008090033",
  "linkReferences": {},
  "deployedLinkReferences": {}
}