{
  "_format": "hh-sol-artifact-1",
  "contractName": "SwapToken",
  "sourceName": "contracts/SwapToken.sol",
  "abi": [
    {
      "anonymous": false,
      "inputs": [
        {
          "indexed": true,
          "internalType": "address",
          "name": "previousOwner",
          "type": "address"
        },
        {
          "indexed": true,
          "internalType": "address",
          "name": "newOwner",
          "type": "address"
        }
      ],
      "name": "OwnershipTransferred",
      "type": "event"
    },
    {
      "anonymous": false,
      "inputs": [
        {
          "indexed": false,
          "internalType": "address",
          "name": "tokenIn",
          "type": "address"
        },
        {
          "indexed": false,
          "internalType": "address",
          "name": "tokenOut",
          "type": "address"
        },
        {
          "indexed": false,
          "internalType": "uint256",
          "name": "_newRate",
          "type": "uint256"
        },
        {
          "indexed": false,
          "internalType": "uint32",
          "name": "newRateDecimals",
          "type": "uint32"
        }
      ],
      "name": "RateChange",
      "type": "event"
    },
    {
      "anonymous": false,
      "inputs": [
        {
          "indexed": false,
          "internalType": "address",
          "name": "_tokenIn",
          "type": "address"
        },
        {
          "indexed": false,
          "internalType": "address",
          "name": "_tokenOut",
          "type": "address"
        },
        {
          "indexed": false,
          "internalType": "uint256",
          "name": "_amountIn",
          "type": "uint256"
        },
        {
          "indexed": false,
          "internalType": "uint256",
          "name": "_amountOut",
          "type": "uint256"
        }
      ],
      "name": "Swap",
      "type": "event"
    },
    {
      "inputs": [
        {
          "internalType": "address",
          "name": "_tokenIn",
          "type": "address"
        },
        {
          "internalType": "address",
          "name": "_tokenOut",
          "type": "address"
        },
        {
          "internalType": "uint256",
          "name": "_exchangeRate",
          "type": "uint256"
        },
        {
          "internalType": "uint32",
          "name": "_exchangeRateDecimals",
          "type": "uint32"
        }
      ],
      "name": "changeRate",
      "outputs": [],
      "stateMutability": "nonpayable",
      "type": "function"
    },
    {
      "inputs": [],
      "name": "initialize",
      "outputs": [],
      "stateMutability": "nonpayable",
      "type": "function"
    },
    {
      "inputs": [],
      "name": "owner",
      "outputs": [
        {
          "internalType": "address",
          "name": "",
          "type": "address"
        }
      ],
      "stateMutability": "view",
      "type": "function"
    },
    {
      "inputs": [],
      "name": "renounceOwnership",
      "outputs": [],
      "stateMutability": "nonpayable",
      "type": "function"
    },
    {
      "inputs": [
        {
          "internalType": "address",
          "name": "_tokenIn",
          "type": "address"
        },
        {
          "internalType": "address",
          "name": "_tokenOut",
          "type": "address"
        },
        {
          "internalType": "uint256",
          "name": "_amountIn",
          "type": "uint256"
        }
      ],
      "name": "swap",
      "outputs": [],
      "stateMutability": "payable",
      "type": "function"
    },
    {
      "inputs": [
        {
          "internalType": "address",
          "name": "",
          "type": "address"
        },
        {
          "internalType": "address",
          "name": "",
          "type": "address"
        }
      ],
      "name": "tokenRate",
      "outputs": [
        {
          "internalType": "uint256",
          "name": "rate",
          "type": "uint256"
        },
        {
          "internalType": "uint32",
          "name": "decimals",
          "type": "uint32"
        }
      ],
      "stateMutability": "view",
      "type": "function"
    },
    {
      "inputs": [
        {
          "internalType": "address",
          "name": "newOwner",
          "type": "address"
        }
      ],
      "name": "transferOwnership",
      "outputs": [],
      "stateMutability": "nonpayable",
      "type": "function"
    },
    {
      "stateMutability": "payable",
      "type": "receive"
    }
  ],
  "bytecode": "0x608060405234801561001057600080fd5b50611e95806100206000396000f3fe6080604052600436106100745760003560e01c80638129fc1c1161004e5780638129fc1c146100fe5780638da5cb5b14610115578063df791e5014610140578063f2fde38b1461015c5761007b565b806316452e88146100805780632c798a6c146100a9578063715018a6146100e75761007b565b3661007b57005b600080fd5b34801561008c57600080fd5b506100a760048036038101906100a29190611157565b610185565b005b3480156100b557600080fd5b506100d060048036038101906100cb91906111be565b6103a9565b6040516100de92919061121c565b60405180910390f35b3480156100f357600080fd5b506100fc6103ea565b005b34801561010a57600080fd5b50610113610472565b005b34801561012157600080fd5b5061012a61055e565b6040516101379190611254565b60405180910390f35b61015a6004803603810190610155919061126f565b610588565b005b34801561016857600080fd5b50610183600480360381019061017e91906112c2565b61083d565b005b61018d610935565b73ffffffffffffffffffffffffffffffffffffffff166101ab61055e565b73ffffffffffffffffffffffffffffffffffffffff1614610201576040517f08c379a00000000000000000000000000000000000000000000000000000000081526004016101f89061134c565b60405180910390fd5b60008211610244576040517f08c379a000000000000000000000000000000000000000000000000000000000815260040161023b906113de565b60405180910390fd5b81606560008673ffffffffffffffffffffffffffffffffffffffff1673ffffffffffffffffffffffffffffffffffffffff16815260200190815260200160002060008573ffffffffffffffffffffffffffffffffffffffff1673ffffffffffffffffffffffffffffffffffffffff1681526020019081526020016000206000018190555080606560008673ffffffffffffffffffffffffffffffffffffffff1673ffffffffffffffffffffffffffffffffffffffff16815260200190815260200160002060008573ffffffffffffffffffffffffffffffffffffffff1673ffffffffffffffffffffffffffffffffffffffff16815260200190815260200160002060010160006101000a81548163ffffffff021916908363ffffffff1602179055507feffe61204a4e71f0d9ac0d001668c9368d39f721d347e00fe5e5f9ef5eb22f9e8484848460405161039b94939291906113fe565b60405180910390a150505050565b6065602052816000526040600020602052806000526040600020600091509150508060000154908060010160009054906101000a900463ffffffff16905082565b6103f2610935565b73ffffffffffffffffffffffffffffffffffffffff1661041061055e565b73ffffffffffffffffffffffffffffffffffffffff1614610466576040517f08c379a000000000000000000000000000000000000000000000000000000000815260040161045d9061134c565b60405180910390fd5b610470600061093d565b565b600060019054906101000a900460ff1661049a5760008054906101000a900460ff16156104a3565b6104a2610a03565b5b6104e2576040517f08c379a00000000000000000000000000000000000000000000000000000000081526004016104d9906114b5565b60405180910390fd5b60008060019054906101000a900460ff161590508015610532576001600060016101000a81548160ff02191690831515021790555060016000806101000a81548160ff0219169083151502179055505b61053a610a14565b801561055b5760008060016101000a81548160ff0219169083151502179055505b50565b6000603360009054906101000a900473ffffffffffffffffffffffffffffffffffffffff16905090565b8173ffffffffffffffffffffffffffffffffffffffff168373ffffffffffffffffffffffffffffffffffffffff1614156105f7576040517f08c379a00000000000000000000000000000000000000000000000000000000081526004016105ee90611547565b60405180910390fd5b6000606560008573ffffffffffffffffffffffffffffffffffffffff1673ffffffffffffffffffffffffffffffffffffffff16815260200190815260200160002060008473ffffffffffffffffffffffffffffffffffffffff1673ffffffffffffffffffffffffffffffffffffffff16815260200190815260200160002060000154116106b9576040517f08c379a00000000000000000000000000000000000000000000000000000000081526004016106b0906115d9565b60405180910390fd5b600034905060008073ffffffffffffffffffffffffffffffffffffffff168573ffffffffffffffffffffffffffffffffffffffff16146106f7578291505b606560008673ffffffffffffffffffffffffffffffffffffffff1673ffffffffffffffffffffffffffffffffffffffff16815260200190815260200160002060008573ffffffffffffffffffffffffffffffffffffffff1673ffffffffffffffffffffffffffffffffffffffff16815260200190815260200160002060010160009054906101000a900463ffffffff16600a610793919061175b565b606560008773ffffffffffffffffffffffffffffffffffffffff1673ffffffffffffffffffffffffffffffffffffffff16815260200190815260200160002060008673ffffffffffffffffffffffffffffffffffffffff1673ffffffffffffffffffffffffffffffffffffffff168152602001908152602001600020600001548361081e91906117a6565b610828919061182f565b905061083685858484610a6d565b5050505050565b610845610935565b73ffffffffffffffffffffffffffffffffffffffff1661086361055e565b73ffffffffffffffffffffffffffffffffffffffff16146108b9576040517f08c379a00000000000000000000000000000000000000000000000000000000081526004016108b09061134c565b60405180910390fd5b600073ffffffffffffffffffffffffffffffffffffffff168173ffffffffffffffffffffffffffffffffffffffff161415610929576040517f08c379a0000000000000000000000000000000000000000000000000000000008152600401610920906118d2565b60405180910390fd5b6109328161093d565b50565b600033905090565b6000603360009054906101000a900473ffffffffffffffffffffffffffffffffffffffff16905081603360006101000a81548173ffffffffffffffffffffffffffffffffffffffff021916908373ffffffffffffffffffffffffffffffffffffffff1602179055508173ffffffffffffffffffffffffffffffffffffffff168173ffffffffffffffffffffffffffffffffffffffff167f8be0079c531659141344cd1fd0a4f28419497f9722a3daafe3b4186f6b6457e060405160405180910390a35050565b6000610a0e30610b09565b15905090565b600060019054906101000a900460ff16610a63576040517f08c379a0000000000000000000000000000000000000000000000000000000008152600401610a5a90611964565b60405180910390fd5b610a6b610b2c565b565b60008211610ab0576040517f08c379a0000000000000000000000000000000000000000000000000000000008152600401610aa7906119f6565b60405180910390fd5b610abb843384610b8d565b610ac6833383610bfa565b7ffa2dda1cc1b86e41239702756b13effbc1a092b5c57e3ad320fbe4f3b13fe23584848484604051610afb9493929190611a16565b60405180910390a150505050565b6000808273ffffffffffffffffffffffffffffffffffffffff163b119050919050565b600060019054906101000a900460ff16610b7b576040517f08c379a0000000000000000000000000000000000000000000000000000000008152600401610b7290611964565b60405180910390fd5b610b8b610b86610935565b61093d565b565b6000839050600073ffffffffffffffffffffffffffffffffffffffff168473ffffffffffffffffffffffffffffffffffffffff1614610bf457610bf38330848473ffffffffffffffffffffffffffffffffffffffff16610d19909392919063ffffffff16565b5b50505050565b6000839050600073ffffffffffffffffffffffffffffffffffffffff168473ffffffffffffffffffffffffffffffffffffffff161415610ce75760008373ffffffffffffffffffffffffffffffffffffffff1683604051610c5a90611a8c565b60006040518083038185875af1925050503d8060008114610c97576040519150601f19603f3d011682016040523d82523d6000602084013e610c9c565b606091505b5050905080610ce0576040517f08c379a0000000000000000000000000000000000000000000000000000000008152600401610cd790611aed565b60405180910390fd5b5050610d14565b610d1283838373ffffffffffffffffffffffffffffffffffffffff16610da29092919063ffffffff16565b505b505050565b610d9c846323b872dd60e01b858585604051602401610d3a93929190611b0d565b604051602081830303815290604052907bffffffffffffffffffffffffffffffffffffffffffffffffffffffff19166020820180517bffffffffffffffffffffffffffffffffffffffffffffffffffffffff8381831617835250505050610e28565b50505050565b610e238363a9059cbb60e01b8484604051602401610dc1929190611b44565b604051602081830303815290604052907bffffffffffffffffffffffffffffffffffffffffffffffffffffffff19166020820180517bffffffffffffffffffffffffffffffffffffffffffffffffffffffff8381831617835250505050610e28565b505050565b6000610e8a826040518060400160405280602081526020017f5361666545524332303a206c6f772d6c6576656c2063616c6c206661696c65648152508573ffffffffffffffffffffffffffffffffffffffff16610eef9092919063ffffffff16565b9050600081511115610eea5780806020019051810190610eaa9190611ba5565b610ee9576040517f08c379a0000000000000000000000000000000000000000000000000000000008152600401610ee090611c44565b60405180910390fd5b5b505050565b6060610efe8484600085610f07565b90509392505050565b606082471015610f4c576040517f08c379a0000000000000000000000000000000000000000000000000000000008152600401610f4390611cd6565b60405180910390fd5b610f5585610b09565b610f94576040517f08c379a0000000000000000000000000000000000000000000000000000000008152600401610f8b90611d42565b60405180910390fd5b6000808673ffffffffffffffffffffffffffffffffffffffff168587604051610fbd9190611dd1565b60006040518083038185875af1925050503d8060008114610ffa576040519150601f19603f3d011682016040523d82523d6000602084013e610fff565b606091505b509150915061100f82828661101b565b92505050949350505050565b6060831561102b5782905061107b565b60008351111561103e5782518084602001fd5b816040517f08c379a00000000000000000000000000000000000000000000000000000000081526004016110729190611e3d565b60405180910390fd5b9392505050565b600080fd5b600073ffffffffffffffffffffffffffffffffffffffff82169050919050565b60006110b282611087565b9050919050565b6110c2816110a7565b81146110cd57600080fd5b50565b6000813590506110df816110b9565b92915050565b6000819050919050565b6110f8816110e5565b811461110357600080fd5b50565b600081359050611115816110ef565b92915050565b600063ffffffff82169050919050565b6111348161111b565b811461113f57600080fd5b50565b6000813590506111518161112b565b92915050565b6000806000806080858703121561117157611170611082565b5b600061117f878288016110d0565b9450506020611190878288016110d0565b93505060406111a187828801611106565b92505060606111b287828801611142565b91505092959194509250565b600080604083850312156111d5576111d4611082565b5b60006111e3858286016110d0565b92505060206111f4858286016110d0565b9150509250929050565b611207816110e5565b82525050565b6112168161111b565b82525050565b600060408201905061123160008301856111fe565b61123e602083018461120d565b9392505050565b61124e816110a7565b82525050565b60006020820190506112696000830184611245565b92915050565b60008060006060848603121561128857611287611082565b5b6000611296868287016110d0565b93505060206112a7868287016110d0565b92505060406112b886828701611106565b9150509250925092565b6000602082840312156112d8576112d7611082565b5b60006112e6848285016110d0565b91505092915050565b600082825260208201905092915050565b7f4f776e61626c653a2063616c6c6572206973206e6f7420746865206f776e6572600082015250565b60006113366020836112ef565b915061134182611300565b602082019050919050565b6000602082019050818103600083015261136581611329565b9050919050565b7f5468652072617465206265747765656e20746f6b656e20616e6420637279707460008201527f6f206d7573742062652067726561746572207468616e20300000000000000000602082015250565b60006113c86038836112ef565b91506113d38261136c565b604082019050919050565b600060208201905081810360008301526113f7816113bb565b9050919050565b60006080820190506114136000830187611245565b6114206020830186611245565b61142d60408301856111fe565b61143a606083018461120d565b95945050505050565b7f496e697469616c697a61626c653a20636f6e747261637420697320616c72656160008201527f647920696e697469616c697a6564000000000000000000000000000000000000602082015250565b600061149f602e836112ef565b91506114aa82611443565b604082019050919050565b600060208201905081810360008301526114ce81611492565b9050919050565b7f43616e6e6f74207472616e73666572203220746f6b656e20776974682073616d60008201527f6520616464726573730000000000000000000000000000000000000000000000602082015250565b60006115316029836112ef565b915061153c826114d5565b604082019050919050565b6000602082019050818103600083015261156081611524565b9050919050565b7f5468652072617465206265747765656e2074686973203220746f6b656e73206960008201527f7320756e617661696c61626c6500000000000000000000000000000000000000602082015250565b60006115c3602d836112ef565b91506115ce82611567565b604082019050919050565b600060208201905081810360008301526115f2816115b6565b9050919050565b7f4e487b7100000000000000000000000000000000000000000000000000000000600052601160045260246000fd5b60008160011c9050919050565b6000808291508390505b600185111561167f5780860481111561165b5761165a6115f9565b5b600185161561166a5780820291505b808102905061167885611628565b945061163f565b94509492505050565b6000826116985760019050611754565b816116a65760009050611754565b81600181146116bc57600281146116c6576116f5565b6001915050611754565b60ff8411156116d8576116d76115f9565b5b8360020a9150848211156116ef576116ee6115f9565b5b50611754565b5060208310610133831016604e8410600b841016171561172a5782820a905083811115611725576117246115f9565b5b611754565b6117378484846001611635565b9250905081840481111561174e5761174d6115f9565b5b81810290505b9392505050565b6000611766826110e5565b91506117718361111b565b925061179e7fffffffffffffffffffffffffffffffffffffffffffffffffffffffffffffffff8484611688565b905092915050565b60006117b1826110e5565b91506117bc836110e5565b9250817fffffffffffffffffffffffffffffffffffffffffffffffffffffffffffffffff04831182151516156117f5576117f46115f9565b5b828202905092915050565b7f4e487b7100000000000000000000000000000000000000000000000000000000600052601260045260246000fd5b600061183a826110e5565b9150611845836110e5565b92508261185557611854611800565b5b828204905092915050565b7f4f776e61626c653a206e6577206f776e657220697320746865207a65726f206160008201527f6464726573730000000000000000000000000000000000000000000000000000602082015250565b60006118bc6026836112ef565b91506118c782611860565b604082019050919050565b600060208201905081810360008301526118eb816118af565b9050919050565b7f496e697469616c697a61626c653a20636f6e7472616374206973206e6f74206960008201527f6e697469616c697a696e67000000000000000000000000000000000000000000602082015250565b600061194e602b836112ef565b9150611959826118f2565b604082019050919050565b6000602082019050818103600083015261197d81611941565b9050919050565b7f43616e6e6f74207377617020746f6b656e20696620746f6b656e20616d6f756e60008201527f7420697320657175616c20746f20300000000000000000000000000000000000602082015250565b60006119e0602f836112ef565b91506119eb82611984565b604082019050919050565b60006020820190508181036000830152611a0f816119d3565b9050919050565b6000608082019050611a2b6000830187611245565b611a386020830186611245565b611a4560408301856111fe565b611a5260608301846111fe565b95945050505050565b600081905092915050565b50565b6000611a76600083611a5b565b9150611a8182611a66565b600082019050919050565b6000611a9782611a69565b9150819050919050565b7f5472616e7366657220746f6b656e206661696c65640000000000000000000000600082015250565b6000611ad76015836112ef565b9150611ae282611aa1565b602082019050919050565b60006020820190508181036000830152611b0681611aca565b9050919050565b6000606082019050611b226000830186611245565b611b2f6020830185611245565b611b3c60408301846111fe565b949350505050565b6000604082019050611b596000830185611245565b611b6660208301846111fe565b9392505050565b60008115159050919050565b611b8281611b6d565b8114611b8d57600080fd5b50565b600081519050611b9f81611b79565b92915050565b600060208284031215611bbb57611bba611082565b5b6000611bc984828501611b90565b91505092915050565b7f5361666545524332303a204552433230206f7065726174696f6e20646964206e60008201527f6f74207375636365656400000000000000000000000000000000000000000000602082015250565b6000611c2e602a836112ef565b9150611c3982611bd2565b604082019050919050565b60006020820190508181036000830152611c5d81611c21565b9050919050565b7f416464726573733a20696e73756666696369656e742062616c616e636520666f60008201527f722063616c6c0000000000000000000000000000000000000000000000000000602082015250565b6000611cc06026836112ef565b9150611ccb82611c64565b604082019050919050565b60006020820190508181036000830152611cef81611cb3565b9050919050565b7f416464726573733a2063616c6c20746f206e6f6e2d636f6e7472616374000000600082015250565b6000611d2c601d836112ef565b9150611d3782611cf6565b602082019050919050565b60006020820190508181036000830152611d5b81611d1f565b9050919050565b600081519050919050565b60005b83811015611d8b578082015181840152602081019050611d70565b83811115611d9a576000848401525b50505050565b6000611dab82611d62565b611db58185611a5b565b9350611dc5818560208601611d6d565b80840191505092915050565b6000611ddd8284611da0565b915081905092915050565b600081519050919050565b6000601f19601f8301169050919050565b6000611e0f82611de8565b611e1981856112ef565b9350611e29818560208601611d6d565b611e3281611df3565b840191505092915050565b60006020820190508181036000830152611e578184611e04565b90509291505056fea2646970667358221220cb8f9259fc545235ecb6ef668dbe5bfb53deff4a3e077e487ed0c6d43963927864736f6c63430008090033",
  "linkReferences": {},
  "deployedLinkReferences": {}
}